:10000000A4C600000C94A0830C94D1830C940284A9
:100010000C9436780C945F780C9488780C94B178B2
:10002000C2C60000C0C60000BEC60000BCC60000BC
:10003000BAC60000B8C60000B6C60000B4C60000CC
:10004000B2C60000B0C600000C949E6FACC60000A3
:100050000C94486C0C94D26CA6C60000A4C6000098
:10006000A2C60000A0C600000C940A739CC6000043
:100070000C94876C0C94116D96C6000094C6000019
:1000800092C6000090C600008EC600008707830756
:100090008A078D079007930796079907160DF20DAB
:1000A000520EB30BDC0B200C820CBF0D050F230F7F
:1000B0005F0F7D0F8D0FAD0BBB0B100C280C9B0D34
:1000C000F20EA90F420FC10FC10FC10FDF0FED0FCD
:1000D0000B102D102D10060DF90C3A0D2B0D5C0D8B
:1000E0004D0D020B6F10AF10B10FE50FCD10DA10F0
:1000F000E710C810D510E210AC11AC11D70F591091
:10010000EE10051115111C111B1003102511A11063
:10011000850D6F0DAC112E1161117B119011BF7007
:10012000C270B570B970D970C670CA70D070D47012
:1001300007634236B79BD8A71A39685618AEBAABD0
:10014000558C1D3CB7CC5763BD6DEDFD753EF61764
:100150007231BF000000803F08000000BE922449B9
:10016000123EABAAAA2ABECDCCCC4C3E00000080E9
:10017000BEABAAAAAA3E00000000BF000000803F5C
:100180000000000000084178D3BB4387D1133D191C
:100190000E3CC3BD4282AD2B3E68EC8276BED98F49
:1001A000E1A93E4C80EFFFBE01C4FF7F3F0000008D
:1001B000000053595300001313001D0003130800DF
:1001C000020000001D0003130813020E0E0E0000B3
:1001D0000301011313131313130000011300000094
:1001E0000000000000000001020200030300000004
:1001F00013130002020000001600000000000000BF
:1002000000000100010201080608010200000101CE
:1002100001010101000100060006000200000000CB
:1002200000000101010000000000000000000000CB
:100230000000030001000200040E0E0E1F00040067
:10024000011D151D1111011F060909080F0F0F00CF
:1002500002031F1E02031F1E040C0F07040C0F07CE
:1002600000000000001C031F0000000000030C0F32
:100270000000001F11111F01111F000000000000ED
:100280001F1F0000000000001F0000000000000011
:100290004A0B400B360B2C0B220B180B0D0BFE0AD6
:1002A000F30AE90ADE0AD20ACC0AC30ABA0AAE0A7B
:1002B000A20A950A880A7B0A5B0A560A4E0A480A6D
:1002C000410A380A46006C620067616C00496E7032
:1002D00075742050696E2028303D4E6F6E65293A46
:1002E000004E6F6E65004B6574746C65204D696ED1
:1002F0003A20004D617368204D696E3A2000484CE9
:1003000054204D696E3A2000537061726765204D2C
:1003100061783A2000452D53746F703A2000436F86
:100320006E74726173743A004272696768746E65C4
:1003300073733A0041646A757374204C43440052ED
:100340006573657420436F6E666967757261746961
:100350006F6E3F003E20436F6E74696E7565203C82
:1003600000557064617465204661696C6564004E77
:1003700065772041646472657373003A2052657436
:1003800072793F004572726F72200054696D656F1B
:10039000757400636C69636B20746F2061637469AA
:1003A000766174652E006F757470757420626F616C
:1003B0007264207468656E00436C69636B2F686FAC
:1003C0006C6420746F207265736574004F7574706F
:1003D0007574204F666673657400436F696C2043C3
:1003E0006F756E7400436F696C2052656769737432
:1003F00065720052533438352052656C6179204162
:10040000646472657373004944204D6F64653A20DB
:10041000004175746F2041737369676E004F6666A3
:100420007365743A2000436F756E743A200052650C
:100430006769737465723A20004E2F41004164640D
:10044000726573733A20004552524F52003A20545D
:10045000494D454F5554003A20434F4E4E45435465
:100460004544003A2044495341424C454400426FC0
:1004700061726420005D005B005E003100536176B4
:10048000650054657374004D616E75616C20566F24
:100490006C756D6520456E747279004D616E756185
:1004A0006C20456E7472790020544F2000557064A2
:1004B000617465200043616C696272617465004318
:1004C000757272656E7420566F6C756D653A004F6B
:1004D00050454E002900202800252F687200204337
:1004E000616C6962726174696F6E00204465616459
:1004F00020537061636500204361706163697479A2
:1005000000457661706F726174696F6E205261741C
:1005100065002048797374657265736973002050B3
:100520004944204761696E00205049442043796363
:100530006C65004F6E2F4F666600504944004B6556
:1005400074746C65204D6F64653A20004D6173686A
:10055000204D6F64653A2000484C54204D6F64650F
:100560003A20002D2D2D0074656D702073656E731B
:100570006F7273206E6F7700446973636F6E6E6580
:10058000637420616C6C206F746865720044656CE4
:100590006574652041646472657373005363616EB2
:1005A000204275730041737369676E2054656D70E6
:1005B0002053656E736F720041757820330041756A
:1005C0007820320041757820310042656572204FF5
:1005D000757400483230204F75740048323020491D
:1005E0006E0042726577204B6574746C6500D706A7
:1005F000D206CB06547269676765727300446973EB
:10060000706C6179005253343835204F75747075B1
:1006100074730056616C76652050726F66696C6504
:100620007300566F6C756D652F43617061636974FB
:1006300079004F7574707574730054656D706572D0
:1006400061747572652053656E736F7273003A2022
:10065000203A0044656C657465204974656D3F00FF
:1006600052657365740074696D65727320616E64A0
:10067000206F7574707574733F00726573657420B4
:10068000736574706F696E74732C0041626F72745D
:10069000206F7065726174696F6E20616E640020F6
:1006A000436C65617220452D53746F70003E436C3E
:1006B00065617220416C61726D00452D53746F70DD
:1006C00020547269676765726564004B6574746C69
:1006D00065004D61736800484C540070726F67721A
:1006E000616D2E004661696C656420746F206164E1
:1006F00076616E636500426F696C2043617061636F
:10070000697479204973737565004D61736820437E
:100710006170616369747920497373756500484C31
:1007200054204361706163697479204973737565FE
:10073000002020204D696E0020204D696E00204D64
:10074000696E00417420426F696C00477261696E86
:10075000204C6F73733A00477261696E20566F6C5C
:100760003A00507265626F696C20566F6C3A0053A4
:10077000706172676520566F6C3A00537472696BD2
:100780006520566F6C3A00537472696B652054652E
:100790006D703A007174732F6C6200477261696EFC
:1007A0002057656967687400426174636820566FFA
:1007B0006C756D650050726F6772616D2043616C7E
:1007C000637300554E4B574E004D415348004865EA
:1007D000617420537472696B6520496E3A004D61F3
:1007E0007368205363686564756C65005069746351
:1007F000682054656D7000537061726765205465A0
:100800006D7000484C542054656D703A004E6F5323
:100810007061726765003A31004D61736820526102
:1008200074696F00204D696E00426F696C204C65E1
:100830006E67746800477261696E2057743A0042AF
:100840006174636820566F6C3A0061637469766501
:100850002E007768696C65206D617368207A6F6E11
:10086000652069730043616E6E6F742073746172EA
:10087000742070726F6772616D0050726F67726181
:100880006D207374617274206661696C65640044E4
:10089000656C617920537461727400537461727471
:1008A00000477261696E2054656D7000456469741B
:1008B0002050726F6772616D0050726F6772616D68
:1008C000204E616D653A00426F696C2054696D6518
:1008D0007200426F696C20506F77657200426F69D9
:1008E0006C2054656D7000426F696C204374726CAB
:1008F0003A20004B6574746C6520546172676574AE
:1009000020566F6C004B6574746C6520546172677F
:100910006574004175746F20466C79004175746F81
:10092000204F7574004175746F20496E004D6173DE
:10093000682054696D6572004D6173682053657459
:10094000706F696E74004D617368205461726765E1
:100950007420566F6C004D61736820546172676536
:1009600074004175746F2046696C6C006973206176
:100970006374697665006D617368206F7220626FC1
:10098000696C207A6F6E650043616E6E6F742064CF
:100990007261696E207768696C650053797374655C
:1009A0006D20536574757000526573657420416CD9
:1009B0006C0053746172742050726F6772616D00C5
:1009C000456469742050726F6772616D00415558BB
:1009D0003300415558320041555831004155582097
:1009E00054656D7073004368696C6C20426F746865
:1009F000004F757400496E004832300042656572E0
:100A0000004368696C6C0020204175746F00426F70
:100A1000696C00466C7920537061726765004669A5
:100A20006C6C20426F74680053706172676500459A
:100A30006E64204D617368004D617368204F75745A
:100A400000536163636832005361636368005072EE
:100A50006F7465696E004163696400446F7567680F
:100A600020496E00507265686561740044656C6170
:100A70007900477261696E20496E00557365722076
:100A800056616C7665203300557365722056616C33
:100A90007665203200557365722056616C7665204C
:100AA00031004B6574746C652049646C65004B655E
:100AB00074746C65204865617400484C5420496426
:100AC0006C6500484C54204865617400447261694B
:100AD0006E00426F696C20526563697263004368FF
:100AE000696C6C2042656572004368696C6C2048D3
:100AF000324F004B6574746C65204C696400426F22
:100B0000696C204164646974696F6E73005370612D
:100B1000726765204F757400537061726765204974
:100B20006E004D6173682049646C65004D617368A7
:100B300020486561740041646420477261696E00F9
:100B400046696C6C204D6173680046696C6C204886
:100B50004C5400526566696C6C0046696C6C007799
:100B600077772E6272657774726F6C6C65722E6324
:100B70006F6D00506C6561736520576169742E2E2E
:100B80002E00496E697469616C697A65204545502B
:100B9000524F4D004D697373696E6720436F6E66E7
:100BA00069670044656C65746500300073004D61D1
:100BB00073682054756E00486F74204C6971756FAE
:100BC000722054616E6B00484C5420536574706FF2
:100BD000696E74003A204F6666003A204F6E0048F6
:100BE0004C542054617267657420566F6C00484CF9
:100BF000542054617267657400416C6C204F6666C6
:100C0000000025003A200053746172742054696D0D
:100C100065720050617573652054696D657200538B
:100C200065742054696D6572004D616E75616C006C
:100C30004175746F002D2D2E2D2D2D002D2D2D2D58
:100C4000004F6666004F6E003A003C003E00416374
:100C50007475616C0054617267657400436F6E74E3
:100C6000696E75650020004D656E750041626F729A
:100C70007400457869740043616E63656C004F6B66
:100C80000076332E302E302D61320042726577545B
:100C9000726F6C6C657200000000010200000000C1
:100CA0000000000403070600000000000000000030
:100CB0000000000000000001020408102040800134
:100CC00002040810204080010204081020408080A7
:100CD0004020100804020102020202020202020481
:100CE00004040404040404030303030303030301CF
:100CF000010101010101010000200023002600295B
:100D00000000002200250028002B00000021002404
:100D10000027002A00101112131415161730313253
:100D2000333435363720212223242526270706058C
:100D30000403020100000908DB111F2D8F2E8D6EA8
:100D40001D72E074DA78907E4C0811241FBECFEF3C
:100D5000D0E4DEBFCDBF12E0A0E0B1E0E0E7F5E116
:100D600001E00BBF02C007900D92A23FB107D9F777
:100D700010E1A2EFB2E001C01D92AF30B107E1F780
:100D80001DE0C8E4DDE000E006C022970109FE0195
:100D90000BBF0E940885C633D10780E00807A9F77A
:100DA0002DD10C94A78A2CC9DC01ED91FC91019006
:100DB000F081E02D099508950F931F930E94E86F2D
:100DC0000091F2021091F3022091F4023091F502A9
:100DD000601B710B820B930B6F3E72408105910576
:100DE00070F08FE994E00E94CD760E94E86F6093E6
:100DF000F2027093F3028093F4029093F5021F9134
:100E00000F910895A0E0B0E0E8E0F7E00C94D384FF
:100E10008C01B12C6C0181E5C80ED11CF801E05B9E
:100E2000FF4F7F01F60180818823C9F0F7016081BF
:100E300081E79EE00E94FD7163E070E081E79EE043
:100E4000B3DF60E081E79EE00E9493716B2D81E744
:100E50009EE00E94937181E79EE00E941B72C0E0B9
:100E6000D0E0F6018081F801EC0FFD1FA080F701B2
:100E70006081882379F081E79EE00E94FD7165E141
:100E800070E081E79EE090DF6A2D70E081E79EE0F0
:100E90008BDF18C081E79EE00E94FD7166E070E084
:100EA00081E79EE081DF6C2F81E79EE00E949371D5
:100EB0006B2D81E79EE00E9493716A2D81E79EE091
:100EC0000E94937181E79EE00E941B722196C431BB
:100ED000D10539F6B3940C5E1F4FF4E0BF12A2CFD8
:100EE000CDB7DEB7EAE00C94EF8466DF0E948F1B7B
:100EF0008091F60290E088309105F8F4FC01EA5BFD
:100F0000FF4F0C94028583EF93E07CDF16C00E94B4
:100F1000B72D13C00E94AE2C10C00E94AC2D0DC086
:100F20000E9452680AC00E94D62307C00E94651220
:100F300004C00E94121D0E94AC1C8091F6028F5FBB
:100F4000883018F48093F60208951092F6020895FE
:100F500060E170E081E79EE00E94EB71EED00E94BC
:100F6000511B4CE160E080E993E00E943A1F4DE1A3
:100F700061E080E993E00E943A1F4EE162E080E97F
:100F800093E00E943A1F4FE163E080E993E00E9402
:100F90003A1F47E064E080E993E00E943A1F46E090
:100FA00065E080E993E00E943A1F43E066E080E953
:100FB00093E00E943A1F44E067E080E993E00E94DA
:100FC0003A1F4CE068E080E993E00E943A1F80E914
:100FD00093E00E949E1F0E94B82B0E94D1180E948D
:100FE0009F190E940E1B0E94811B0E941A550E948D
:100FF000FC670C94AF230E94476077CF0E94467035
:10100000A7DFC5ECDCE6F7DF2097E9F30E94C56CAB
:10101000FACFA0E0B0E0EFE0F8E00C94D38486ECE7
:1010200094E00E945676CEEAD4E0CE010E94567635
:10103000249684E0C63CD807C1F78FE994E00E946B
:10104000567681E08093430469E080E993E00E9452
:10105000261F8FE38F9380E88F931F921F92A12CFE
:10106000B12C80E8C82E80E4D82EE12CF12C00E4CD
:1010700010E428E633E04CE653E060E773E08CE0F0
:1010800093E00E9431810F900F900F900F90CDB799
:10109000DEB7EAE00C94EF8480E993E00C94351F0E
:1010A000AB01BC012AE030E085E39DE00E94916F36
:1010B0006AE371E085E39DE00C94066FCF93DF93C4
:1010C000EC01BE01FE018491882341F02196FB01D1
:1010D000649185E39DE00E94096FF3CF6AE371E0BC
:1010E00085E39DE00E94066FDF91CF9108950E94F5
:1010F000E86FD6DF82EB91E0E1DF67E371E085E343
:101100009DE00E94066F81E89CE0D8DF60E070E01F
:10111000CB01C6DF61E070E080E090E0C1DF60E01D
:1011200070E0CB01BDDF6CE371E085E39DE00E94E0
:10113000066F85E39DE00C94116F40E052EC61E096
:1011400070E085E39DE00E94826D80911A0181111B
:10115000CECF0895FC01ED5FFB4F11821082FC01A0
:101160001282118210820895FC01ED5FFB4F2081F5
:101170003181DC0111964D915C911297241735074E
:1011800050F4A9014F5F5F4F51834083FC01E20F90
:10119000F31F8381089580E00895FC0180818330EE
:1011A00081F4DF01AD5FBB4F2D913C91119781819F
:1011B00092812817390729F41D921C9212821182FC
:1011C000108280810895CF93DF93FC018181928109
:1011D000009759F09C012F5F3F4F32832183DF013D
:1011E000A80FB91F29E013962C93DB018C9188235B
:1011F00069F0818192819C012F5F3F4F328321836F
:101200002D91EF01C80FD91F2B83F0CFDF91CF9124
:101210000895AFE0B0E0EFE0F9E00C94D9848C01E0
:10122000CA0169831A824F3F2FEF520771F04AE0DB
:1012300050E0BE01675F7F4F0E941B8ABE01675F5F
:101240007F4FCE0101960E94098AF8011282118215
:10125000BE016F5F7F4FC801B6DF2F96E4E00C94AC
:10126000F584DC0111968D919C9112979C012F5F62
:101270003F4F12963C932E931197FD01E80FF91FF3
:1012800029E023839B01FB018491882399F0119627
:101290008D919C911297AC014F5F5F4F12965C93BA
:1012A0004E9311976F5F7F4FF9012491FD01E80F75
:1012B000F91FE7CF0895ABE0B0E0E1E6F9E00C9468
:1012C000D9848C01CB01BA012AE030E0AE014F5F36
:1012D0005F4F0E94428ABE016F5F7F4FC80173DF7C
:1012E0002B96E4E00C94F584A4E1B0E0EAE7F9E0A1
:1012F0000C94D8848C01F12C8F2D0E94D220482F81
:1013000050E060E070E0C801D6DFBE016F5F7F4F44
:101310008F2D0E94DA20BE016F5F7F4FC80153DF1F
:101320008F2D0E94E320482F50E060E070E0C8015C
:10133000C2DFF39482E0F812DFCF6496E5E00C940C
:10134000F484FC01818192818F3F23E0920710F0A9
:101350008EEF93E0DF01A80FB91F2DE013962C93B9
:1013600013970296928381838AE014968C93DF010F
:10137000AD5FBB4F1D921C9283E080830895CF9395
:10138000DF93FC0181819281009729F102968130DF
:1013900024E0920710F080E094E092838183DF01E3
:1013A000AD5FBB4F019711969C938E938D919C914D
:1013B00011978230910560F09C01215031091196FE
:1013C0003C932E93EF01C80FD91F89818B83EECFF9
:1013D00089E0848304C081E090E092838183638309
:1013E000CF01AFDFDF91CF910895ABE0B0E0EBEF3D
:1013F000F9E00C94D984DC011396EC911397F0E09A
:10140000E858FE4F1491112309F442C0AD5FBB4F61
:1014100021E030E011963C932E93FC0161817281B2
:101420002D913C9111972617370720F02130310577
:1014300021F42BC02B30310558F0FE01E20FF31FD1
:101440001082CE0101960E949D8997FF19C01DC090
:10145000FC01E20FF31F0381093041F3402F50E0FC
:10146000405351094A30510580F4A9014F5F5F4F45
:1014700011965C934E932C0F3D1FF9010083D0CF42
:10148000E12FF0E0E817F9072CF48FEF9FEF02C08F
:1014900080E090E02B96E4E00C94F584FC0141811F
:1014A000528190E080E0292F30E02417350750F476
:1014B000DF01A20FB31F13962C91293009F48F5F1F
:1014C0009F5FF1CF08951F93CF93DF93FC01CA0173
:1014D000A181B28130E010E0412F50E04A175B0754
:1014E00018F0DC0130E015C03617D8F71F5F4E0F3B
:1014F0005F1FEA014B81493079F73F5FEDCF4E0F17
:101500005F1FEA014B81493061F0321751F03F5FB4
:101510004D93432F410F50E0618172814617570769
:1015200070F3FC01E30FF11D1082DF91CF911F9149
:101530000895A4E1B0E0EFE9FAE00C94DB842AE03E
:10154000AE014F5F5F4FBFDF4AE050E060E070E008
:10155000CE0101960E948C886496E2E00C94F78498
:10156000A8E1B0E0E6EBFAE00C94CB845C0182E009
:10157000D5018C9324E144E753E060E0C501A3DF8B
:101580006EE371E00E94F689892B59F4B0DDF50114
:10159000ED5FFB4F11821082F501128211821082E1
:1015A000E2C6D50111968D919C911297892B09F471
:1015B000D3C613961C9182EC810F813408F0CCC6FF
:1015C000C5016CDFE12FF0E0E754FE4FE4918E1788
:1015D00011F063E2C2C6C50108DF4C018F3FBFEFC7
:1015E0009B0711F464E2B9C6F5012381822F90E0D4
:1015F000FC01FE97E134F10508F0AEC6E25BFF4F57
:101600000C9402854FEF5FEF61E6C50102DE409169
:10161000F90250E060E070E0C5014DDE0E94051F58
:10162000482F50E060E070E0C50145DE40919F0327
:101630005091A0036091A1037091A203C5013BDE0C
:101640000E94051CAB01BC01C50135DE0AEC14E0AB
:10165000D12C7801D8018D919C910E945D630E94EC
:10166000E285AB01BC01C50126DEF80180819181D4
:101670000E9468630E94E285AB01BC01C5011BDECC
:101680008D2D0E941C1F482F50E060E070E0C501C6
:1016900012DED801ED91FD918D01E358FF4F20E05E
:1016A00030E04AE754E460817181828193810E9435
:1016B00075850E94E285AB01BC01C501FCDDF70127
:1016C000808191810E9460670E94E285AB01BC012C
:1016D000C501F1DD40E050E0BA01C501ECDDD39475
:1016E000F4E0DF12B6CF0BE414E0D8014D915D9128
:1016F0008D01662757FD6095762FC501DCDDB4E0CE
:1017000007351B0791F74091040350910503609141
:10171000060370910703C501CEDD4091FA0250E047
:1017200060E070E0C501C7DD4091080350910903F6
:1017300060910A0370910B03C501BDDD4091FB026E
:1017400050E060E070E0C501B6DD4091F80250E085
:1017500060E070E0C501AFDD2FC461E0C501E9DEE6
:10176000862F0E944D154FEF5FEF61E4C50151DDFB
:101770000E944715E9C5C4016AE070E00E947A84BE
:101780008B01782CEAE06E9F7018112461E0C5018E
:10179000D0DE6B017C0162E0C501CBDE9B01AC01B8
:1017A000F801FF27EE0FFF1FE653FB4F8601672D61
:1017B000808191810E94F566A40162E4C50129DD62
:1017C000C4016AE070E00E947A848B011127FAE07C
:1017D0006F9F80181124000F111F06531B4FD80153
:1017E0008D919C91B4E08B9E40011124880D991D30
:1017F000FC01EB5AFF4F4081518162817381C50129
:101800005ADDF80180819181880D991DFC01EB5A08
:10181000FF4F40815181628173816627772798C588
:1018200061E0C50186DE643671058105910528F405
:1018300061E0C5017EDE862F01C084E60E945D1551
:101840004FEF5FEF63E4C501E4DC0E9464157CC5E3
:1018500061E0C5016EDE21E0672B682B692B09F47E
:1018600020E01401220C331CC10186539B4F1C0144
:10187000622FDC018D919C910E947C6662E0C50123
:1018800058DE0E940E86AB01BC01F101808191817E
:101890000E94CB6665E0C5014CDE6B017C0164E013
:1018A000C50147DE2B013C0163E0C50142DE6D8BC3
:1018B0007E8B8F8B988FC701B6010E940E866B01BD
:1018C0007C01C301B2010E940E862B013C016D898F
:1018D0007E898F89988D0E940E86AB01BC01930191
:1018E0008201D1018D919C910E94706366E0C501D7
:1018F00020DE0E940E86AB01BC01F1018081918146
:101900000E94A466A40164E4C50183DC8401000F85
:10191000111FC80186539B4F7C01DC01ED91FC91A6
:1019200041A950E060E070E0C501C5DCD701ED9150
:10193000FC9166A977A980AD91AD0E94E285AB01CB
:10194000BC01C501B8DCD701ED91FC9182A993A936
:10195000009719F00E94EA8104C060E070E080E422
:1019600090E40E94E285AB01BC01C501A4DCF80152
:10197000E653FB4F0190F081E02D82A993A90097D7
:1019800019F00E94F08104C060E070E080E890E40B
:101990000E94E285AB01BC01C5018DDCF801E65374
:1019A000FB4F0190F081E02D82A993A9009719F0D7
:1019B0000E94F68104C060E070E080E89FE30E942E
:1019C000E285AB01BC01C50176DCF801E653FB4FB3
:1019D0000190F081E02D62AD73AD84AD95AD0E94B4
:1019E000E285AB01BC01C50166DC40E050E0BA0114
:1019F00006C423E1AE014F5F5F4F61E0C50163DDC7
:101A0000BE016F5F7F4F882D0E94EB15A4016BE52F
:101A1000C501FFDBBE016F5F7F4F882D0E940F164F
:101A2000BE016F5F7F4FC501CEDB9AC44FEF5FEF02
:101A30006EE3C501EEDB10E0BE016F5F7F4F812FCB
:101A40000E940F16BE016F5F7F4FC501BCDB1F5F99
:101A5000143191F785C410E001E0010F602FC5013A
:101A600068DD462F612F882D0E945216063011F036
:101A7000102FF2CFA4016DE5C501CBDB10E0612F83
:101A8000882D0E946016482F50E060E070E0C5018C
:101A900012DC1F5F163099F763C410E001E0010FFC
:101AA000602FC50146DD462F612F882D0E947316D9
:101AB000063011F0102FF2CFA4016FE5C501A9DBAC
:101AC00010E0612F882D0E948416482F50E060E0BE
:101AD00070E0C501F0DB1F5F163099F741C461E08B
:101AE000C50127DDAB01BC01882D0E94EE1762E025
:101AF000C5011FDDAB01BC01882D0E94F51763E015
:101B0000C50117DD882D0E949818A40168E7C5015A
:101B100080DB882D0E94BD17AB01BC01C501CBDB6A
:101B2000882D0E94C417AB01BC01C501C4DB882D00
:101B30000E941C1845C361E0C501FBDC882D0E9492
:101B4000361662E0C501F5DC882D0E94A91663E017
:101B5000C501EFDC882D0E948C1864E0C501E9DC2A
:101B6000882D0E94C51665E0C501E3DC882D0E9422
:101B70009F1866E0C501DDDC882D0E949216A40145
:101B800065E4C50146DB882D0E944216482F50E0CF
:101B900060E070E0C5018FDB882D0E94B516482FEC
:101BA00050E060E070E0C50186DB882D0E941518CA
:101BB000AC0160E070E0C5017EDB882D0E94D1168B
:101BC000482F50E060E070E0C50175DB882D0E9471
:101BD0002318AC0160E070E0C5016DDB882D0E9428
:101BE0009E16B2C323E1AE014F5F5F4F61E0C501B6
:101BF0006ADC182DBE016F5F7F4F882DECD762E045
:101C0000C50197DCAB01BC01882D0E94EE1763E093
:101C1000C5018FDCAB01BC01882D0E94F51764E083
:101C2000C50187DC882D0E94981845E0F42E00E05D
:101C30006F2DC5017EDC462F602F812F0E9452162A
:101C400061E06F0DC50175DC462F602F812F0E946A
:101C500073160F5FF394F394063051F761E1C501F9
:101C600068DC882D0E94361662E1C50162DC882D91
:101C70000E94A91663E1C5015CDC882D0E948C18C6
:101C800064E1C50156DC882D0E94C51665E1C501D9
:101C900050DC882D0E949F1866E1C5014ADC882D22
:101CA0000E949216A40160E4C501B3DA182DBE01AA
:101CB0006F5F7F4F882DB3D7BE016F5F7F4FC50128
:101CC00082DA882D0E94BD17AB01BC01C501F3DA91
:101CD000882D0E94C417AB01BC01C501ECDA882D28
:101CE0000E941C18AC0160E070E0C501E4DA00E07D
:101CF000602F812FE5D7482F50E060E070E0C501EC
:101D0000DADA602F812F0E948416482F50E060E0BD
:101D100070E0C501D0DA0F5F063051F7882DB2D7D9
:101D2000482F50E060E070E0C501C5DA882D0E94C0
:101D3000B516482F50E060E070E0C501BCDA882D90
:101D40000E941518AC0160E070E0C501B4DA882D7E
:101D50000E94D116482F50E060E070E0C501ABDA78
:101D6000882D0E942318AC0160E070E0C501A3DA61
:101D7000882DE4D7482F50E060E070E0C5019BDA81
:101D8000882D0E94492B482F50E060E070E0C5018B
:101D900092DA882D0E94372B482F50E060E070E0E7
:101DA000C50189DA882D0E941225AB01BC01C5014D
:101DB00082DA882D0E946E26AB01BC01C5017BDA58
:101DC000882D0E942027AB01BC01C50174DA882D43
:101DD0000E94FD2AAB01BC01C5016DDA882D0E946D
:101DE000342638C1FE0131967F01D12C8F01D39466
:101DF0006D2DC5019EDBD7016D937D01B8E0DB122F
:101E0000F6CFB801882D0E946219A40166E4C501CD
:101E100000DA33E0880C991C3A95E1F7F401E95AAD
:101E2000FB4F4F0100E010E0F401E00FF11F408193
:101E300050E060E070E0C5013EDA0F5F1F4F0830F0
:101E4000110591F78DC24FEF5FEF67E4C501E1D94E
:101E500061E87CE0C50105DA43E050E060E070E055
:101E6000C50129DA41E050E060E070E0C50123DA05
:101E700040E050E0BA01C5011EDA41E050E060E008
:101E800070E066C261E0C50154DB0E940E86AB01C2
:101E9000BC018401000F111F06531B4FD8018D9107
:101EA0009C910E94336762E0C50143DB0E940E866D
:101EB000AB01BC01F801808191810E944A67A401B5
:101EC00068E4C501A6D98401000F111F06531B4FFA
:101ED000D801ED91FC916789708D818D928D0E9462
:101EE000E285AB01BC01C501E6D9D801ED91FC91B9
:101EF000638D748D858D968DABC061E0C50119DB56
:101F0000623D71058105910509F063CB4FEF5FEFED
:101F100069E4C5017ED9ACD723C24FEF5FEF6AE415
:101F2000C50177D9CE0101960E940E2C8E010F5F5C
:101F30001F4F7E01B9E0EB0EF11CF80141918F01BA
:101F400050E060E070E0C501B6D90E151F05A9F795
:101F500007C261E0C501EDDAAB01BC01882D0E942A
:101F6000E017A40164E6C50154D9F401EE0FFF1F88
:101F7000EE0FFF1FED55FC4F40815181628173814F
:101F8000E7C1253561F461E0C501D3DADC01CB019D
:101F9000843108F01ECB682D0E94672308C02335CA
:101FA00011F462E001C063E0882D0E94E7234FEF47
:101FB0005FEF6EE6C5012DD9C50196D9D1C161E0AB
:101FC000C501B7DA862F0E94AF2D4FEF5FEF65E6B0
:101FD000C5011FD94091F902B8C161E0C501A9DA74
:101FE000E7E9F3E020E030E0A1E0B0E0AD01022E4F
:101FF00001C0440F0A94EAF7462341932F5F3F4FF5
:102000002730310599F74FEF5FEF65E7C50101D93B
:102010000E94051F99C161E0C5018BDA0E940E86FE
:10202000AB01BC01F401EE0FFF1FE653FB4F8081B3
:1020300091810E94E464A40164E7C501EAD8F40137
:10204000EE0FFF1FE653FB4F808191810E945D637D
:102050000E94E285AB01BC017BC161E0C50129356D
:1020600091F467DAF401E650FD4F2081022F10E071
:1020700020E030E06017710782079307D1F0882DC8
:102080000E945E2D16C055DA8401000F111F000F4B
:10209000111FF801EC5FFC4F60837183828393838F
:1020A0000E94E86FF801E450FD4F608371838283E2
:1020B0009383A4016FE6C501ACD8F401EE0FFF1FB6
:1020C000EE0FFF1FEC5FFC4F4081518162817381F5
:1020D000C501F1D8F401E650FD4F408136C162E000
:1020E000C50127DA672B682B692B81F061E0C501F8
:1020F00020DA00919F031091A0032091A103309159
:10210000A203062B172B282B392B13C061E0C50126
:1021100010DA609570958095909500919F031091CD
:10212000A0032091A1033091A203062317232823A3
:10213000392300939F031093A0032093A1033093AE
:10214000A2034FEF5FEF67E7C50163D840919F039C
:102150005091A0036091A1037091A203F9C0F1E036
:102160008F16910431F4E091D004F091D1040995D7
:10217000F7C0A40163E6C5014CD80E9417240E9451
:10218000AE1C80E00E94862D81E00E94862DE8C072
:1021900061E0C501CED9862F87D44FEF5FEF66E6A9
:1021A000C50137D840915703D0C061E0C501C1D9FE
:1021B000CB01AED74FEF5FEF67E6C5012AD832D724
:1021C000AC01C4C061E0C501B4D9862FF7D44FEF8C
:1021D0005FEF68E6C5011DD8F8D4B6C0A40160E77A
:1021E000C50117D8F401EE0FFF1FE653FB4F8081A6
:1021F00091810E9460670E94E285AB01BC01C5012C
:102200005AD840E050E0BA01A3C0A40161E7C5017B
:1022100000D8F401EE0FFF1FEB5BFB4F40815181B3
:10222000662757FD6095762F93C04FEF5FEF62E70B
:10223000C5010E94090994C0A40163E7C5010E9479
:102240000909882D0E941C1F7FC04FEF5FEF66E7D2
:10225000C5010E9409090E94051CFCCE61E0C50170
:1022600068D98401000F111FF801E653FB4F01905C
:10227000F081E02DC788D08CE18CF28C0E940E8614
:10228000A70196010E94718587FF06C061E0C50124
:1022900050D90E940E8602C0C701B601F801E6536C
:1022A000FB4F0081118103581F4F20E030E04AE7C7
:1022B00054E40E94C486D8016D937D938D939C93C2
:1022C0001397A4016CE7C5010E940909F401EE0F00
:1022D000FF1FE653FB4F0190F081E02DE358FF4FC5
:1022E00020E030E04AE754E460817181828193818B
:1022F0000E947585ADCE61E0C5011BD96093F802DF
:10230000613039F020F0623059F461E003C060E0E0
:1023100001C062E08091CE049091CF040E94F266E9
:102320004FEF5FEF6EE7C5010E9409094091F80287
:1023300050E060E070E0C5010E945B098091CE042E
:102340009091CF040E945D66482F50E060E070E0FD
:10235000C5010E945B0904C061E2C50110D803C039
:10236000C5010E94A1096896E2E10C94E784FC0192
:102370008081811102C081E08083613041F4DF01FE
:10238000AD5FBB4F1D921C921282118208956D3079
:1023900011F4CF01E5C821813281C90101969283F0
:1023A0008183DF01A20FB31F13966C9381159440B4
:1023B00081F30895089587ED98E00E94AA0882EDC0
:1023C00094E00C94AA08CF9387ED98E00E94CD0882
:1023D000823098F08330A9F142C081E79EE00E94EC
:1023E0001B71882371F1682F87ED98E0C0DF87EDBE
:1023F00098E00E94CD08813021F541E050E061E194
:1024000070E081E79EE00E94FB7181E79EE00E9400
:102410001371892B11F715C087ED98E00E94CD0844
:10242000833059F487ED98E00E94B408682F81E763
:102430009EE00E949371C15079F781E79EE00E946F
:102440001B7287ED98E00E94CD08833041F461E172
:1024500070E081E79EE00E940772C1E2ECCFCF916D
:10246000089582ED94E00E94CD08823088F0833098
:10247000D9F0089585E39DE00E94DD6B682F82ED21
:1024800094E075DF82ED94E00E94CD08813031F454
:1024900085E39DE00E94B06B892B61F782ED94E0AB
:1024A0000E94CD08833081F482ED94E00E94CD0833
:1024B000833051F482ED94E00E94B408682F85E3E4
:1024C0009DE00E940A6CF0CF0895CBDF7CDF17C23D
:1024D0006115710589F0DB010D900020E9F7AD0170
:1024E00041505109461B570BDC01ED91FC910280D4
:1024F000F381E02D0995089580E090E008950F9311
:102500001F93CF93DF93162FD42FC22F682F81E70D
:102510009EE00E94FD71143610F4DC3318F066E47E
:1025200071E028C01A3028F46CE471E081E79EE085
:10253000CFDF4AE050E064E773E0812F90E00E9433
:102540001B8ABC0181E79EE0C3DF62EB71E081E79B
:102550009EE0BEDFDA3028F46CE471E081E79EE0B3
:10256000B7DF4AE050E064E773E08D2F90E00E940F
:102570001B8ABC0181E79EE0ABDFC43610F40C334C
:1025800018F066E471E028C0CA3028F46CE471E009
:1025900081E79EE09DDF4AE050E064E773E08C2F26
:1025A00090E00E941B8ABC0181E79EE091DF62EB14
:1025B00071E081E79EE08CDF0A3028F46CE471E082
:1025C00081E79EE085DF4AE050E064E773E0802F1A
:1025D00090E00E941B8ABC0181E79EE079DF81E7E1
:1025E0009EE00E941B72DF91CF911F910F91089581
:1025F000A0E0B0E0EEEFF2E10C94D084182F042FAD
:1026000070E0FB01EE0FFF1FEE0FFF1FEC5FFC4FB2
:1026100080809180A280B38081149104A104B104D0
:1026200039F0FB01E650FD4F8081882309F443C057
:102630008091F902811106C0FB01E650FD4F8081B7
:102640008823E1F1C501B40120E83EEE46E350E005
:102650000E948D84C22FA22FB0E020E831E149EC26
:102660005FEF0E944D846B017C01C80CD91CEA1CF1
:10267000FB1CC701B60120E63AEE40E050E00E94A4
:102680008D8449015A01D22FC1111AC0A22FB0E086
:1026900020EA35E14FEF5FEF0E944D846C0D7D1D08
:1026A0008E1D9F1D28EE33E040E050E00E948D8497
:1026B000C82DD22F05C0D4E6C4E602C0D0E0C0E0E9
:1026C000802F90E0FC01EE0FFF1FEE0FFF1FEC5F6D
:1026D000FC4F80809180A280B38081149104A1047A
:1026E000B10439F0FC01E650FD4F2081222309F4AA
:1026F00043C02091F902211106C0FC01E650FD4FB4
:1027000080818823E9F1C501B40120E83EEE46E36B
:1027100050E00E948D84722EA22FB0E020E831E1BB
:1027200049EC5FEF0E944D846B017C01C80CD91C01
:10273000EA1CFB1CC701B60120E63AEE40E050E07F
:102740000E948D8449015A01022F71101BC0A22FD3
:10275000B0E020EA35E14FEF5FEF0E944D846C0D51
:102760007D1D8E1D9F1D28EE33E040E050E00E944D
:102770008D84782C022F06C004E684E6782E02C0F1
:1027800000E0712C272D4D2F6C2F812FB8DECDB797
:10279000DEB7EDE00C94EC84CF93DF93EB01682F70
:1027A00081E79EE00E94FD71FE0101900020E9F7A3
:1027B000AF01415051094C1B5D0BBE0181E79EE00A
:1027C0000E946D7181E79EE00E941B72DF91CF91A4
:1027D0000895A8E0B0E0EFEEF3E10C94D9844983CA
:1027E0005A836B837C830D831E832F833887682FE6
:1027F00081E79EE00E94FD716FEF70E081E79EE04F
:102800000E94D40660E070E081E79EE00E94D4065A
:1028100044E050E0BE016F5F7F4F81E79EE00E9481
:102820006D7144E050E0BE016B5F7F4F81E79EE039
:102830000E946D7181E79EE00E941B722896E4E081
:102840000C94F584A0E0B0E0E8E2F4E10C94D484C8
:10285000B82EE62FF0E0EE0FFF1FEB5BFB4F208161
:1028600031812115304829F46EE471E08B2D94DF1D
:1028700016C0C42FD0E0CC0FDD1FC653DB4F8881BC
:1028800099810E9468636B017C01888199810E9413
:102890005D63AB01BC01970186018B2D9ADFCDB73B
:1028A000DEB7E9E00C94F084A0E0B0E0EAE5F4E102
:1028B0000C94D484B82EEB01CB010E94686320E015
:1028C00030E040E057EC0E947185811105C06EE454
:1028D00071E08B2D61DF0EC0CE010E9468636B0139
:1028E0007C01CE010E945D63AB01BC0197018601B2
:1028F0008B2D6FDFCDB7DEB7E9E00C94F084CF927B
:10290000DF92EF92FF920F931F930E94E86FC090A7
:10291000DC0CD090DD0CE090DE0CF090DF0C6C193C
:102920007D098E099F09653F71408105910508F475
:1029300043C06091CA047091CB0482E2B5DF60911C
:10294000CC047091CD0482E2AFDF6091CE0470912F
:10295000CF0482E2A9DF60914F0470915004882770
:1029600077FD8095982F0E94108620E030E048EC9B
:1029700052E40E9475856B017C016091F70270E062
:1029800080E090E00E940E86AB01BC0197018601B9
:1029900084E21FDF41E060E085E22ADE41E066E09C
:1029A0008AE250DF0E94E86F6093DC0C7093DD0CCC
:1029B0008093DE0C9093DF0C1F910F91FF90EF90AE
:1029C000DF90CF90089540E550E061E971E083EA3F
:1029D00093E00C94658ACF93C82F68E470E080E799
:1029E0009EE00E940C7190E002C095958795CA9573
:1029F000E2F78170CF91089525E0829FC0011124F4
:102A0000BC01675B7F4F80E79EE00C940C7125E072
:102A1000829FC0011124BC01665B7F4F80E79EE06E
:102A20000C940C7125E0829FC0011124BC01655BF0
:102A30007F4F80E79EE00C940C71CF93C82F85E008
:102A4000C89FB0011124645B7F4F80E79EE00E9425
:102A50000C7190E002C095958795CA95E2F7817058
:102A6000CF910895CF93C82F85E0C89FB00111245E
:102A7000635B7F4F80E79EE00E940C7190E002C094
:102A800095958795CA95E2F78170CF9108956FE685
:102A900070E080E79EE00C940C71482F6FE670E0C8
:102AA00080E79EE00C940F7180935703482F60E7F6
:102AB00070E080E79EE00C940F71482F61E770E0B2
:102AC00080E79EE00C940F7161E770E080E79EE084
:102AD0000C940C71CF93DF93C82FD0E0882777FD3B
:102AE0008095982F0E941086AB01BC01FE01EE0F6D
:102AF000FF1FE653FB4F808191810E94E464BE0179
:102B000082E004D5DF91CF910895CF93DF93C82F52
:102B1000D62FE82FF0E0E650FD4F608362E371E0CE
:102B200080E79EE00E940C7141E050E060E070E0C0
:102B300004C0440F551F661F771FCA95D2F7DD23C7
:102B400011F0482B02C04095482362E371E080E712
:102B50009EE00E940F71DF91CF910895CF93C82F0F
:102B60008093F90262E371E080E79EE00E940C71BD
:102B7000482FCC2311F0446001C04B7F62E371E029
:102B800080E79EE00E940F71CF910895282FCB011E
:102B900030E0220F331FB901675C7E4F42E050E006
:102BA0000C94658A282FCB0130E0220F331FB90126
:102BB000675C7E4F42E050E00C947D8A482F60E9CC
:102BC00071E080E79EE00C940F7160E971E080E7AE
:102BD0009EE00C940C71EF92FF920F931F93CF9392
:102BE000DF932CE3829FC00111248B01EC01CE5EA8
:102BF000DC4F7C01EBEDEE1AECEFFE0AF80141919F
:102C00008F01BE0180E79EE00E940F712196CE15D4
:102C1000DF05A1F7CDB7DEB7E6E00C94F384A0E0C2
:102C2000B0E0E5E1F6E10C94D5848B012CE3829FC2
:102C3000C0011124EC01CE5EDC4F7B016C01EBED99
:102C4000CE1AECEFDE0ABE0180E79EE00E940C7116
:102C5000F70181937F012196CC15DD05A1F7F801DD
:102C6000138ACDB7DEB7E8E00C94F184462F2CE34D
:102C7000829FC0011124BC01695D7C4F80E79EE00A
:102C80000C940F712CE3829FC0011124BC01695D7B
:102C90007C4F80E79EE00E940C7194E6899F802D16
:102CA00011240895262F3CE3839FC0011124BC0109
:102CB000645D7C4F620F711D80E79EE00C940F7184
:102CC000262F3CE3839FC0011124BC01645D7C4F2F
:102CD000620F711D80E79EE00E940C7194E6899F4F
:102CE000802D11240895262F4F3F69F03CE3839FE8
:102CF000C0011124BC016E5C7C4F620F711D80E726
:102D00009EE00C940F710895262F3CE3839FC00131
:102D10001124BC016E5C7C4F620F711D80E79EE048
:102D20000C940C71462F2CE3829FC0011124BC012E
:102D3000645C7C4F80E79EE00C940F712CE3829FD3
:102D4000C0011124BC01645C7C4F80E79EE00C94C0
:102D50000C71462F2CE3829FC0011124BC01635CDF
:102D60007C4F80E79EE00C940F712CE3829FC001A2
:102D70001124BC01635C7C4F80E79EE00E940C71D3
:102D800094E6899F802D11240895462F2CE3829F7D
:102D9000C0011124BC01625C7C4F80E79EE00C9472
:102DA0000F712CE3829FC0011124BC01625C7C4F37
:102DB00080E79EE00E940C7194E6899F802D11248B
:102DC0000895682F70E06E5F774F80E79EE00C9467
:102DD0000C71462F90E0BC016E5F774F80E79EE05C
:102DE0000E940F711BC425E0829FC0011124BC0109
:102DF0006F5E774F80E79EE00C940C7125E0829F18
:102E0000C0011124BC016C5E774F80E79EE00C94FA
:102E10000C7125E0829FC0011124BC016B5E774FCD
:102E200080E79EE00C940C71462F25E0829FC00144
:102E30001124BC016F5E774F80E79EE00C940F7108
:102E4000462F25E0829FC0011124BC016C5E774FA4
:102E500080E79EE00C940F71462F25E0829FC00111
:102E60001124BC016B5E774F80E79EE00C940F71DC
:102E7000A2E0B0E0EEE3F7E10C94D184A12CB12CF8
:102E800040E0B50180E79EE00E940F718FEFA81A25
:102E9000B80AA114E0E1BE0699F74CEF6EEF77E0B7
:102EA00080E79EE00E940F717AECA72E74E0B72EA7
:102EB000450140E050E060EA70E4F50180819181D5
:102EC0000E94A466C12CD12CE12C60E4F62E00E017
:102ED00010E020E830E440E050E060E470E4F50108
:102EE000819191915F010E94706340E050E060E841
:102EF00070E4F401808191810E94CB66F2EDAF16FF
:102F0000F4E0BF06A9F68CE359DE84EDC6DD84E665
:102F1000CBDD1FEF19831A83BE016F5F7F4F80E007
:102F200041DE19831A83BE016F5F7F4F81E03ADE75
:102F300040E06FEF77E080E79EE00E940F71E09144
:102F4000D004F091D10409952296ECE00C94ED8424
:102F5000A4E0B0E0EEEAF7E10C94DB8444E050E05A
:102F6000BC01CE0101960E94658A69817A818B81BC
:102F70009C812496E2E00C94F7842CE3829FC001AC
:102F80001124885C9C4FE4CF2CE3829FC001112464
:102F90008F5B9C4FDDCFA4E0B0E0E1EDF7E10C9456
:102FA000DB8449835A836B837C8344E050E0BC011B
:102FB000CE0101960E947D8A2496E2E00C94F7846B
:102FC00024E0829FC0011124FC01ED55FC4F408399
:102FD0005183628373838F569E4FDDCF2CE3829F94
:102FE000C0011124885C9C4FD6CF2CE3829FC00186
:102FF00011248F5B9C4FCFCFA2E0B0E0E2E0F8E17C
:103000000C94DB8442E050E0BC01CE0101960E94AA
:10301000658A89819A812296E2E00C94F78483E3A1
:1030200091E0EACF8EE891E0E7CF2CE3829FC001E8
:103030001124885D9C4FE0CF2CE3829FC0011124B6
:10304000865D9C4FD9CF2CE3829FC0011124815C07
:103050009C4FD2CF25E0829FC00111248E5E974FF6
:10306000CBCFA2E0B0E0E7E3F8E10C94D384F82EF4
:10307000A82EB12CAA0CBB1C850108571C4FF801C7
:1030800080819181009729F00E94E26EF8011182FF
:1030900010828F2DA8DE682F8F3FC9F08F2D6A8395
:1030A000D9DF6C018F2DAADE282F8F2D2983B1DE69
:1030B000082F88E191E00E94E06E7C012981A60141
:1030C0006A8146D7F501E857FC4FF182E0822296EB
:1030D000EAE00C94EF84A2E0B0E0E1E7F8E10C94C0
:1030E000DB847A83698342E050E0BC01CE01019623
:1030F0000E947D8A2296E2E00C94F78490E0895643
:103100009F4F880F991FE7CFBC0183E391E0E3CF86
:10311000BC018EE891E0DFCF6F3F2FEF720739F0EF
:103120002CE3829FC0011124885D9C4FD4CF089569
:103130002CE3829FC0011124865D9C4FCCCF2CE3F1
:10314000829FC0011124815C9C4FC5CF25E0829FE6
:10315000C00111248E5E974FBECFA1E0B0E0E3EB3B
:10316000F8E10C94D984182F6FEF5EDE68EE73E0FF
:10317000812FECDF68E0812F63DE111102C069E06E
:103180000AC000E069E0812F698343DE6981680F2E
:103190000F5F0113F8CF812F5FDE2196E4E00C94DE
:1031A000F584CF93DF936FEF77E080E79EE00E9496
:1031B0000C71C82F6EEF77E080E79EE00E940C71E3
:1031C0008C3F09F05BC0CF3F09F458C0C13019F102
:1031D00030F0C230A1F1C33009F440C051C0CCE49A
:1031E000D0E0BE0180E79EE00E940C71880F482F5E
:1031F000440F440F480FBE0180E79EE00E940F710C
:103200002596C036D10569F741E06FEF77E080E79A
:103210009EE00E940F71C2E0D8E040E0BE0180E76E
:103220009EE00E940F712196C73088E0D807A9F769
:1032300042E06FEF77E080E79EE00E940F7180E050
:103240008CDF81E08ADF82E088DF83E086DF43E095
:103250006FEF77E080E79EE00E940F7180E07DDFF6
:1032600081E07BDF82E079DF83E077DF44E069E0C3
:1032700078E080E79EE00E940F7102C081E001C00B
:1032800080E0DF91CF910895A0E0B0E0EAE4F9E1B9
:103290000C94D6848B01D42EEB017C01E61AF70A3C
:1032A0008C2F801B8D1548F4B7016C0F7D1F499141
:1032B00080E79EE00E940F71F3CFCDB7DEB7E7E065
:1032C0000C94F284E82FF0E0833040F4EE0FFF1FFF
:1032D000E653FB4F808191810C94BD63CF01A3E045
:1032E000880F991FAA95E1F7DC01A95ABB4F28E086
:1032F000FB0101900D922A95E1F748E0C5CFA1E0CE
:10330000B0E0E5E8F9E10C94D5848B016B017C0118
:10331000E61AF70A8C2D801B841768F4B7016C0D30
:103320007D1D80E79EE049830E940C71F601819328
:103330006F014981EFCF2196E8E00C94F1840F935F
:103340001F93CF93DF9348E467E574E080E090E05B
:10335000D6DF60E770E080E79EE00E940C7180930A
:103360005703C0E0D0E0BE0182E0D0D02196C43047
:10337000D105C9F78EE291E03FDE20E63AEEDC01AE
:103380000E944784609304037093050380930603AF
:103390009093070380E391E02FDE20E63AEEDC0114
:1033A0000E944784609308037093090380930A0383
:1033B00090930B0362E371E080E79EE00E940C7142
:1033C000C82FD0E081708093FA020E94E86F60936A
:1033D000FC027093FD028093FE029093FF020C2F7B
:1033E000069501700093FB020E94E86F6093000352
:1033F000709301038093020390930303D595C795BF
:10340000D595C7956C2F61706093F90286EC94E0B6
:103410000E94EE76D8DA80E024DE81E022DE82E0CF
:1034200020DE83E01EDEDF91CF911F910F91089582
:1034300080919F039091A003A091A103B091A2035A
:103440008F7D80939F039093A003A093A103B093DB
:10345000A20308958091A4049091A5040E94F2769D
:10346000882319F01092A304089581E08093A304A7
:103470000E94AF2D54D170D20C94B72D8091CA0404
:103480009091CB040E94D16380919F039091A003FF
:10349000A091A103B091A2039F7D80939F0390937D
:1034A000A003A093A103B093A20308958091CC043C
:1034B0009091CD040E94D16380919F039091A003CD
:1034C000A091A103B091A203877F80939F03909363
:1034D000A003A093A103B093A20308958091CE040A
:1034E0009091CF040E94D16380919F039091A0039B
:1034F000A091A103B091A2039F7780939F03909323
:10350000A003A093A103B093A2030895EF92FF92AA
:103510000F931F93CF93DF93F82EEB0182E0F81205
:1035200070C0862F58D2082F8C2F62D2E82E8C2F95
:103530006CD2182FFE01EE0FFF1FE653FB4F808168
:1035400091810E945D6320E030E0A9010E947185B5
:10355000202F30E0F901E956FC4F882319F081E073
:1035600080834FC01082812F14D2882319F141E04B
:1035700050E060E070E004C0440F551F661F771FE5
:103580001A95D2F7409550956095709500919F03DC
:103590001091A0032091A1033091A20304231523CD
:1035A0002623372300939F031093A0032093A103A6
:1035B0003093A2038E2DEDD1882319F141E050E024
:1035C00060E070E004C0440F551F661F771FEA9447
:1035D000D2F7409550956095709500919F0310919A
:1035E000A0032091A1033091A203042315232623D5
:1035F000372300939F031093A0032093A1033093DC
:10360000A2036C2F8F2D0E94E02FBE018F2D0E94F0
:10361000DA11CDB7DEB7E6E00C94F3841F93CF93B5
:10362000DF93BFDD811139C0C4EAD4E010E08881A6
:103630009981009711F00E94E777812FC2DB8823E0
:1036400041F1812FBEDB24E0829FC0011124865509
:103650009B4F99838883111105C04AE25AE161E0CA
:1036600070E015C0113029F448E15AE163E070E0E0
:103670000EC0123019F44EE35AE107C0133019F4AA
:1036800046E55AE102C04EE65AE162E070E00E946F
:1036900055771F5F2296153051F6DF91CF911F911C
:1036A000089541E062E086EC94E00E945C7641E09F
:1036B00060E08FE994E00E945C7640E065E18EEA8C
:1036C00094E00E945C7640E064E182EB94E00E942A
:1036D0005C7640E063E186EB94E00E945C7640E03B
:1036E00062E18AEB94E00E945C7640E065E08EEB5C
:1036F00094E00E945C7640E066E182EC94E00C94F9
:103700005C760895E82FF0E0EE0FFF1FE653FB4FC5
:1037100040E050E0BA01808191810C94E464A0E023
:10372000B0E0E5E9FBE10C94D5840E94E86F6B0101
:103730007C01C8E5D3E00AEC14E0EE24FF24888184
:103740009981AA81BB81892B8A2B8B2B21F4C8827A
:10375000D982EA82FB82F801819191918F010E94C6
:10376000D1632496F3E0C436DF0749F7CDB7DEB75F
:10377000E8E00C94F184CF92DF92EF92FF920F93E6
:103780001F936B017C0180E993E0DCD3C616D7065A
:10379000E806F90699F1B701A60180E993E077D32D
:1037A0008091880390918903009789F089D49701CB
:1037B000860104C036952795179507956A95D2F727
:1037C000B901A80180918803909189030FD4809159
:1037D0008A0390918B03009789F072D49701860138
:1037E00004C036952795179507956A95D2F7B901C4
:1037F000A80180918A0390918B03F8D31F910F91B8
:10380000FF90EF90DF90CF9008950F931F93CF9389
:10381000DF938091A304811197C08091A6049091B9
:10382000A7040097A9F00E94F276882389F080917E
:103830009F039091A003A091A103B091A2038F7D5B
:1038400080939F039093A003A093A103B093A2033E
:103850008091A8049091A9040097A9F00E94F276A3
:10386000811111C080919F039091A003A091A103A9
:10387000B091A2039F7D80939F039093A003A09398
:10388000A103B093A2038091AA049091AB04009786
:10389000A9F00E94F276811111C080919F0390914E
:1038A000A003A091A103B091A203877F80939F03FF
:1038B0009093A003A093A103B093A2038091AC04C2
:1038C0009091AD040097A9F00E94F276811111C089
:1038D00080919F039091A003A091A103B091A203B6
:1038E0009F7780939F039093A003A093A103B0932D
:1038F000A20340919F035091A0036091A103709196
:10390000A203C3EAD3E0E0E0F0E080E090E0DC0175
:103910008A019B010E2E04C03695279517950795B1
:103920000A94D2F700FF08C0088119812A813B81DF
:10393000802B912BA22BB32B31962496E431F105E9
:1039400039F7BC01CD0103C060E070E0CB01DF912D
:10395000CF911F910F91089558DF0DCFCF93DF9333
:1039600010929F031092A0031092A1031092A20341
:10397000CAECD4E040E050E0BA01899199910E94EC
:10398000E46484E0C03DD807A9F7E6DFDF91CF917A
:10399000089594E0899FF0011124ED55FC4F40817A
:1039A000518162817381452B462B472B91F04091C9
:1039B0009F035091A0036091A1037091A20304C0E2
:1039C00076956795579547958A95D2F7842F81709C
:1039D000089580E00895882329F0813029F082300D
:1039E00029F0089586E0089581E0089587E008951C
:1039F000882329F0813029F0823029F008958DE064
:103A0000089583E008958FE00895882329F0813098
:103A100029F0823029F008958EE0089584E0089519
:103A200080E108954F925F926F927F928F929F9262
:103A3000AF92BF92CF92DF92EF92FF921F93CF93FC
:103A4000DF9380919703882309F466C08091CA04AC
:103A50009091CB040E9460676B017C01E091CA04E5
:103A6000F091CB04E358FF4F20E030E04AE754E404
:103A700060817181828193810E9475859B01AC0177
:103A8000C701B6010E94718540919F035091A00328
:103A90006091A1037091A20387FF02C0416001C041
:103AA0004E7F40939F035093A0036093A1037093B4
:103AB000A2038091CC049091CD040E9460676B01B9
:103AC0007C01E091CC04F091CD04E358FF4F20E05D
:103AD00030E04AE754E460817181828193810E94E1
:103AE00075859B01AC01C701B6010E9471854091AB
:103AF0009F035091A0036091A1037091A20387FFDF
:103B000002C0426001C04D7F40939F035093A003C9
:103B10006093A1037093A203CAECD4E010E0C12C1F
:103B2000D12C7601C394812F63DF882E812F6DDF26
:103B3000482E812F50DFE82FF0E0E956FC4F8081BE
:103B4000882309F490C0888199810E945D6688234A
:103B500009F441C0842D1DDF882319F1D701C60166
:103B600004C0880F991FAA1FBB1F4A94D2F72C01CB
:103B70003D01409450946094709440919F03509103
:103B8000A0036091A1037091A203442155216621F5
:103B9000772140939F035093A0036093A1037093F8
:103BA000A203882DF6DE81115EC0D701C60104C0D4
:103BB000880F991FAA1FBB1F8A94D2F740919F03B9
:103BC0005091A0036091A1037091A203482B592B3F
:103BD0006A2B7B2B40C0882DDCDE882319F1D701AE
:103BE000C60104C0880F991FAA1FBB1F8A94D2F771
:103BF0004C015D0180949094A094B09440919F03F7
:103C00005091A0036091A1037091A2034821592112
:103C10006A217B2140939F035093A0036093A103EB
:103C20007093A203842DB5DE81111DC0D701C6019A
:103C300004C0880F991FAA1FBB1F4A94D2F7409156
:103C40009F035091A0036091A1037091A203482BA0
:103C5000592B6A2B7B2B40939F035093A0036093B7
:103C6000A1037093A2031F5F2296133009F05BCF6C
:103C700080919903882399F18091CA049091CB0493
:103C80000E9460676B017C01E091CA04F091CB0453
:103C9000E358FF4F20E030E04AE754E4608171814F
:103CA000828193810E9475859B01AC01C701B60199
:103CB0000E94C08640919F035091A0036091A10390
:103CC0007091A203181614F4406201C04F7D409316
:103CD0009F035093A0036093A1037093A20380916C
:103CE0009A03882399F18091CE049091CF040E9489
:103CF00060676B017C01E091CE04F091CF04E35842
:103D0000FF4F20E030E04AE754E460817181828116
:103D100093810E9475859B01AC01C701B6010E9489
:103D2000718540919F035091A0036091A103709110
:103D3000A20387FF02C0406401C04F7B40939F03F2
:103D40005093A0036093A1037093A20380919B03FF
:103D5000882399F18091CE049091CF040E946067EE
:103D60006B017C01E091CE04F091CF04E358FF4F4A
:103D700020E030E04AE754E46081718182819381E0
:103D80000E9475859B01AC01C701B6010E94718537
:103D900040919F035091A0036091A1037091A203F1
:103DA00087FF02C0406601C04F7940939F03509344
:103DB000A0036093A1037093A203DF91CF911F91A1
:103DC000FF90EF90DF90CF90BF90AF909F908F903B
:103DD0007F906F905F904F900895811105C0809102
:103DE000A8049091A9040895813029F48091AA042F
:103DF0009091AB040895823029F48091AC049091A5
:103E0000AD04089580E090E00895E7E9F3E020E054
:103E100030E080E041E050E09191992339F0BA011F
:103E2000022E01C0660F0A94EAF7862B2F5F3F4FE0
:103E30002830310589F70895E82FF0E0EE0FFF1FD5
:103E4000E653FB4F808191810C945D66CF93DF93A5
:103E5000EC016E8324E0629FC00111240E94896AF4
:103E600099838883DF91CF910895FC0180819181AE
:103E70000C94216B262F642FFC018081918141E0FD
:103E8000F4E02F9F800D911D11240C945C76AF926D
:103E9000BF92DF92EF92FF920F931F93CF93DF9326
:103EA00000D000D0CDB7DEB75C01D12CEE24E39476
:103EB000F12CF5018681D81678F587010D2C02C00A
:103EC000000F111F0A94E2F7222717FD2095322FC9
:103ED0000423152326233723A4E0DA9EC0011124EE
:103EE000D501ED91FC918E0F9F1F49835A836B83FF
:103EF0007C83012B022B032B39F00E9487764981AA
:103F00005A816B817C8106C00E94A8767C816B817E
:103F10005A814981D394CDCF42835383648375837F
:103F20000F900F900F900F90DF91CF911F910F91F5
:103F3000FF90EF90DF90BF90AF90089540E050E089
:103F4000BA01A5CFFC0162817381848195810895B6
:103F5000A0E1B1E0EEEAFFE10C94D3847C015A01C8
:103F6000122F6C0184E0C80ED11CC601C05FDE4F69
:103F70006883C051D1400E94697AF701ED5EFE4F1F
:103F8000C05FDE4F6881C051D1406083462F61E041
:103F9000CE0101960E946E7A8FE091E0FE0131968B
:103FA000D60101900D920197E1F767E1C6010E94E9
:103FB000807B26E240E05CE261E070E0C6010E94A6
:103FC000787AF701EA5EFE4F81E0A81AB108B18263
:103FD000A082F701EC5EFE4F1083F701EB5EFE4F0F
:103FE0000083C05FDE4FEAE00C94EF84A0E0B0E015
:103FF000ECEFFFE10C94CC84EC01488359836A8395
:104000007B83E0E0312C7C018CEEE81A8EEFF80A1D
:10401000812C912C540183946E01A4E0CA0ED11C12
:10402000D701FC913F16B8F580E090E000E0132D39
:10403000180F1F1720F58830910509F14880598025
:104040006A807B8004C076946794579447941A954D
:10405000D2F7402F95018401082E04C0000F111FD4
:10406000221F331F0A94D2F740FE02C0042B05C062
:10407000009510952095309504230196D8CF77248C
:1040800073947E0E402F50E06E2FC6010E94B07BCD
:10409000E72D312EC5CF4F2F50E0FE01EA5EFE4FD7
:1040A00060817181CE0104960E94847ECDB7DEB717
:1040B000E1E10C94E8848C5E9E4FFC0180810895C0
:1040C0008B5E9E4FFC01608170E080E090E008957F
:1040D000FC01EC5EFE4F408150E0FC01EA5EFE4FC9
:1040E0006081718104960C94657EEF92FF920F932C
:1040F0001F93CF93DF93EC01F62E8C010C5F1F4FC3
:10410000462F50E069E273E2C8010E94737EE82EF8
:1041100081110AC041E050E06AE273E2C8010E94E6
:10412000737ECD5EDE4FF8828E2DCDB7DEB7E6E032
:104130000C94F384462F50E068E273E204960C94EA
:10414000737ECF93DF93EC01249641E050E068E268
:1041500073E2CE010E946C7E811105C060E0CE0149
:104160000E94A37B01C080E0DF91CF910895982F3A
:104170008091E10C891739F081E02091E30C291737
:1041800019F080E0089581E008958091E10C8D3070
:1041900038F081E09091E30C9D3018F080E00895B4
:1041A00081E00895E82FF0E0EE0FFF1FEF51F34F8D
:1041B00080810895E82FF0E0EE0FFF1FEE51F34FDE
:1041C00080810C940F16E82FF0E0EE0FFF1FEE51E8
:1041D000F34F808108958091E10C8F3F31F0809101
:1041E000E30C8F3F49F481E001C080E090E0880F4C
:1041F000991F8F51934F089580E090E008959C019E
:10420000215E3C4035952795BC01822F0C94D21538
:104210000F931F93CF93DF93EC01162F08816883D0
:10422000EEDF1F3F21F4602F70E081E003C0688162
:1042300070E080E06BD9DF91CF911F910F910895CD
:10424000CF93DF93EB018130E1F090F0843008F000
:1042500058C06FEFCE01DCDF10929C0380919F036A
:104260009091A003A091A103B091A203997F32C0C5
:1042700089810E94D1168093F7026EE0CE01C8DFDB
:1042800040C08091CE049091CF040E94686320E0EA
:1042900030E040E85FEB0E947185882321F1809136
:1042A000CE049091CF040E94686320E030E040E3A8
:1042B00053E40E9471851816B4F088E06ADB81111E
:1042C00020C080919F039091A003A091A103B09181
:1042D000A203916080939F039093A003A093A103F6
:1042E000B093A2030EC088E054DB882351F0809184
:1042F0009F039091A003A091A103B091A2039E7F80
:10430000E9CFDF91CF910895A0E0B0E0EAE8F1E2D3
:104310000C94D184182FEB01813009F455C050F072
:10432000823009F476C1833009F0BAC16FEFCE0153
:104330006FDF6FC10E944715682F70E080E090E04A
:104340000E940E86AB01BC018091CE049091CF04F7
:104350000E94E46489810E9423189093E80C809362
:10436000E70C8091080390910903A0910A03B09192
:104370000B03892B8A2B8B2B81F489810E941518C2
:10438000BC0181E00E94242D1092E60C1092E50CF5
:1043900080E090E00E94841806C00E940F1890935D
:1043A000E60C8093E50C1092FB021092ED0C10923B
:1043B000EE0C1092EF0C1092F00C81E08093F8025A
:1043C0006DE0CE0125DF6CC18091E50C9091E60C8B
:1043D00097FD1CC08091CE049091CF040E94686329
:1043E00020E030E040E057EC0E947185882371F0B6
:1043F0008091CE049091CF040E94686320E038E25F
:1044000040EA56E40E94C08687FF21C1E091CE04B5
:10441000F091CF04E256FF4F8081882339F08091DC
:10442000FB02811103C081E00E945E2D8091ED0CA2
:104430009091EE0CA091EF0CB091F00C892B8A2B8F
:104440008B2B81F00E94E86F0091ED0C1091EE0C27
:104450002091EF0C3091F00C6017710782079307E1
:1044600009F004C1E091CE04F091CF04E256FF4F71
:10447000808181110AC0E091CE04F091CF04E25610
:10448000FF4F80818111A6C00BC18091E50C9091F6
:10449000E60C2091E70C3091E80C8227932780FFEF
:1044A00029C080919F039091A003A091A103B09196
:1044B000A203806880939F039093A003A093A1031D
:1044C000B093A2030E94E86F6093ED0C7093EE0C22
:1044D0008093EF0C9093F00C81E00E94AF2D8091BF
:1044E000E50C9091E60C81609093E60C8093E50CCE
:1044F0000E94841864E0E62E61E0F62E01E010E0F0
:10450000AA24A394B12CE0E68E2EEAEE9E2E65013D
:10451000002E02C0CC0CDD1C0A94E2F78091E50C61
:104520009091E60C2091E70C3091E80C82279327BC
:104530008C219D21892B09F443C0F7012081318111
:10454000289DC001299D900D389D900D1124A0E05B
:10455000B0E0409108035091090360910A03709103
:104560000B0384179507A607B70750F180919F03A7
:104570009091A003A091A103B091A20380688093C1
:104580009F039093A003A093A103B093A2030E9462
:10459000E86F6093ED0C7093EE0C8093EF0C9093AA
:1045A000F00C81E00E94AF2D8091E50C9091E60C1B
:1045B0008C299D299093E60C8093E50C0E94841829
:1045C0000F5F1F4FF2E0EF0EF11C0C30110509F0E8
:1045D0009ECF51CF8091080390910903A0910A03C7
:1045E000B0910B03892B8A2B8B2B09F059C01092A9
:1045F000F80282E087D88091ED0C9091EE0CA091AA
:10460000EF0CB091F00C892B8A2B8B2B09F048C052
:1046100012E040919F035091A0036091A10370911B
:10462000A2034F7740939F035093A0036093A1038D
:104630007093A2031092F80282E064D881E00E9495
:10464000862D123069F5BE0180E0FADD29C081E0D7
:104650000E94AF2D8091E50C9091E60C90689093AC
:10466000E60C8093E50C0E948418D0CE40919F0305
:104670005091A0036091A1037091A2034F774093E2
:104680009F035093A0036093A1037093A203109221
:10469000ED0C1092EE0C1092EF0C1092F00CE2CE9A
:1046A000CDB7DEB7ECE00C94ED848C3010F480E0F4
:1046B00007C08C3041F480E068DD811106C081E0E4
:1046C00064DD811102C080E0089581E00895FF92C9
:1046D0000F931F93CF93DF93F82E162F83E18F153F
:1046E00018F480E090E022C0862FDFDF8111F9CF3F
:1046F00072DDEC010097A9F31F3098F7E12FF0E08D
:10470000EE0FFF1FE95AFE4F0081118101151105BF
:1047100041F38FEF8883F982CE0171DDBE0180E025
:10472000F801099588818F3FE1F2CE01CDB7DEB760
:10473000E5E00C94F48460E0CACFDC01862FEC91B4
:10474000EF3060F4F0E0EE0FFF1FE95AFE4F0190EA
:10475000F081E02D309711F0BD010995089561EECB
:104760007CE080E00E94C6158091E10C8F3F51F003
:1047700060E081EE9CE0E1DF6091E10C70E080E0C0
:104780000E94861A63EE7CE081E00E94C61580914B
:10479000E30C8F3F51F060E083EE9CE0CEDF609150
:1047A000E30C70E080E00C94861A08958091E10C8F
:1047B0008F3F21F061E081EE9CE0BFDF8091E30C50
:1047C0008F3F21F061E083EE9CE0B7CF0895CF9357
:1047D000DF93C82FD62F8091E10C8C1310C0CF30FF
:1047E00070F4AC2FB0E0AA0FBB1FA95ABE4FED91D9
:1047F000FC91309721F061EE7CE08D2F099580913E
:10480000E30C8C1311C0CF3078F4EC2FF0E0EE0FF6
:10481000FF1FE95AFE4F0190F081E02D309721F003
:1048200063EE7CE08D2F0995DF91CF91089563E0D1
:1048300081EE9CE082DF63E083EE9CE07ECFA1E02E
:10484000B0E0E5E2F4E20C94D784182F762F7A01D9
:10485000613009F451C060F0623009F47FC0633008
:1048600009F0ACC06FEFCA017983D2DC798176C0E0
:10487000DA0111968C910E94B516682F70E080E0E5
:1048800090E00E940E86AB01BC018091CA04909119
:10489000CB040E94E464612FF70181810E946016BD
:1048A000682F70E080E090E00E940E86AB01BC01B2
:1048B0008091CC049091CD040E94E4644091040363
:1048C000509105036091060370910703452B462B19
:1048D000472B59F4612FD70111968C910E948416B1
:1048E000682F70E080E00E94242D1092FA0265E0AB
:1048F000610FC7018DDC62C0E091CC04F091CD0462
:10490000E256FF4F8081882331F08091FA028111B5
:1049100002C00E945E2D8091CC049091CD040E9433
:104920005D6320E030E0A9010E9471858823A9F031
:10493000E091CC04F091CD04E256FF4F80818823B2
:10494000E9F18091040390910503A0910603B091D1
:104950000703892B8A2B8B2B89F572E080E0798302
:104960000E94862D00919F031091A0032091A10326
:104970003091A203077E00939F031093A00320931E
:10498000A1033093A20380E00E94821B81E00E9479
:10499000821B7981723091F4D701EC91EF5FEF3097
:1049A00068F4F0E0EE0FFF1FE95AFE4F0190F0812E
:1049B000E02D309719F0B70180E009952196E6E0E7
:1049C0000C94F384AB01682F80E039CFAB01682FE2
:1049D00081E035CFAB01682F82E031CFAB01682F8A
:1049E00083E02DCFAB01682F84E029CFAB01682F86
:1049F00085E025CF1092990310929A0310929B03A1
:104A000080919F039091A003A091A103B091A20374
:104A1000877880939F039093A003A093A103B09302
:104A2000A20308958F929F92AF92BF92CF92DF928E
:104A3000EF92FF921F93CF93DF93C82F0E94BD1771
:104A40000E940E86E091CE04F091CF04238D348D28
:104A5000458D568D0E940D856B017C010E94641569
:104A6000182F8C2F0E941518EC01612F70E080E048
:104A700090E00E94108620E030E048EC52E40E9472
:104A800075854B015C01BE0180E090E00E940E86BE
:104A90009B01AC01C501B4010E94C48620E030E056
:104AA00040E752E40E9475859B01AC0160E070E034
:104AB00080E89FE30E940C859B01AC01C701B60111
:104AC0000E9475850E94E2850E940E8620E030E0FB
:104AD00040E05FE30E940D850E94DD85DF91CF916C
:104AE0001F91FF90EF90DF90CF90BF90AF909F907D
:104AF0008F9008950F931F93CF93DF93182FEB019F
:104B0000823001F18330D9F0811136C089818ADF8A
:104B10000091CE041091CF0403581F4F0E940E86BF
:104B200020E030E04AE754E40E94C486F801608344
:104B30007183828393836CE0CE016ADB1DC06FEFCB
:104B4000CE0166DBE091CA04F091CB04E358FF4F3D
:104B50001082118212821382E091CE04F091CF0470
:104B6000E358FF4F108211821282138243DF12300A
:104B700019F4BE0180E0C8DBDF91CF911F910F9146
:104B800008950F931F93CF93DF93182FEB0182307B
:104B900009F449C0833009F443C0811160C081E049
:104BA000DED789810E944216682F70E080E00E9463
:104BB0006A158091CC049091CD040E945D6320E041
:104BC00030E0A9010E947185882321F06BE0CE01BD
:104BD0001FDB45C015E08091CC049091CD040E946C
:104BE0005D6320E030E0A9010E9471858111EECF64
:104BF0001F3F61F30FEF010F612F89810E94601643
:104C0000682F70E080E090E00E940E86AB01BC014E
:104C10008091CC049091CD040E94E464102FDBCFEE
:104C20006FEFCE01F5DA40919F035091A0036091A0
:104C3000A1037091A203477E40939F035093A0036A
:104C40006093A1037093A20380E00E94821B81E025
:104C50000E94821B123019F4BE0180E04BDFDF910D
:104C6000CF911F910F910895CF93C82F0E94C41721
:104C70000E940E8626E731E74BE55EE30E94C4867C
:104C800020E030E0A9010E94C08687FD12C08C2F71
:104C90000E94C4170E940E8626E731E74BE55EE3CB
:104CA0000E94C48620E030E040E05FE30E940D8572
:104CB00011C08C2F0E94C4170E940E8626E731E790
:104CC0004BE55EE30E94C48620E030E040E05FE315
:104CD0000E940C850E94DD85CF910895CF92DF92CE
:104CE000EF92FF92CF93C82F0E941C186C018C2F5B
:104CF000C114D10409F475C00E94C4179B01AC0112
:104D0000E12CF12CC701B6010E9457840E940E8647
:104D100020E030E048EC52E40E94758520E030E06D
:104D2000A9010E94C08687FD18C08C2F0E94C4175D
:104D30009B01AC01C701B6010E9457840E940E86F8
:104D400020E030E048EC52E40E94758520E030E03D
:104D500040E05FE30E940D8517C08C2F0E94C417AE
:104D60009B01AC01C701B6010E9457840E940E86C8
:104D700020E030E048EC52E40E94758520E030E00D
:104D800040E05FE30E940C850E94DD850E940E8654
:104D900020E030E040E85EE30E94C4866B017C01C5
:104DA00020E030E0A9010E94C08620E030E040E031
:104DB0005FE387FD05C0C701B6010E940D8504C0F1
:104DC000C701B6010E940C850E94DD850E940E86F7
:104DD000E091CC04F091CD04238D348D458D568D1A
:104DE00025C020DE6B017C018C2F3EDF6C0D7D1D0C
:104DF0008E1D9F1D0E940E866B017C01E091CA04EE
:104E0000F091CB04A091CC04B091CD045B962D9190
:104E10003D914D915C915E97638D748D858D968DDE
:104E20000E940D859B01AC01C701B6010E940D8552
:104E30000E94E285CF91FF90EF90DF90CF90089590
:104E4000CF92DF92EF92FF92CF93C82FEBDD6B01F1
:104E50007C018C2F09DF6C0D7D1D8E1D9F1D0E9416
:104E60000E866B017C01E091CA04F091CB04A09105
:104E7000CC04B091CD045B962D913D914D915C9108
:104E80005E97638D748D858D968D0E940D859B0137
:104E9000AC01C701B6010E940D850E94E2856B013D
:104EA0007C018C2F1BDFA7019601261B370B480BBB
:104EB000590BCA01B901CF91FF90EF90DF90CF90CD
:104EC0000895CF92DF92EF92FF92CF93C82F0E9466
:104ED0009E16811104C08C2FB3DF6B017C01C701CA
:104EE000B601CF91FF90EF90DF90CF900895CF92D1
:104EF000DF92EF92FF921F93CF93DF93182FEB0176
:104F0000813079F150F0823009F47DC0833009F0AE
:104F1000A6C06FEFCE017CD976C08981D2DFE09048
:104F2000CA04F090CB042DE7E20EF11C0E940E861D
:104F300020E030E04AE754E40E94C486F701608331
:104F4000718382839383E091CC04F091CD04E35884
:104F5000FF4F108211821282138264E0CE0158D971
:104F60007EC08091CA049091CB040E9460676B015F
:104F70007C01E091CA04F091CB04E358FF4F20E09C
:104F800030E04AE754E460817181828193810E941C
:104F900075859B01AC01C701B6010E94C08687FDE3
:104FA0005EC08091CC049091CD040E9460676B013B
:104FB0007C01E091CC04F091CD04E358FF4F20E058
:104FC00030E04AE754E460817181828193810E94DC
:104FD00075859B01AC01C701B6010E94C08687FDA3
:104FE0003EC080919F039091A003A091A103B09136
:104FF000A2038E7F80939F039093A003A093A103AD
:10500000B093A2032CC0E091CA04F091CB04E35802
:10501000FF4F1082118212821382E091CC04F09132
:10502000CD04E358FF4F1082118212821382109236
:10503000970340919F035091A0036091A103709149
:10504000A2034C7F40939F035093A0036093A1035E
:105050007093A203123019F4BE0180E0B3DCDF913B
:10506000CF911F91FF90EF90DF90CF900895A0E037
:10507000B0E0EDE3F8E20C94CD84182FEB01813021
:1050800009F46DC050F0823009F49EC0833009F0FD
:10509000CAC06FEFCE01BCD897C01092E90C109235
:1050A000EA0C1092EB0C1092EC0C80E00E94821B38
:1050B00081E00E94821B81E052D580919F039091F4
:1050C000A003A091A103B091A203846080939F03E9
:1050D0009093A003A093A103B093A20389810E949F
:1050E0009E16811138C08981ABDE4B015C0189813C
:1050F000F5DD6B017C01680D791D8A1D9B1D0E94E9
:105100000E862B013C010091CA041091CB04F801DA
:105110008788908CA18CB28CA50194010E94718526
:1051200087FF02C05301420103581F4FC701B60158
:105130000E940E869B01AC01C501B4010E940C8542
:1051400020E030E04AE754E40E94C486F80160831E
:1051500071838283938363E0CE015AD864C08091C7
:10516000CA049091CB040E9460676B017C01E091BE
:10517000CA04F091CB04E358FF4F20E030E04AE747
:1051800054E460817181828193810E9475859B01C5
:10519000AC01C701B6010E94718518160CF443C01A
:1051A0001092990380919F039091A003A091A10375
:1051B000B091A2038F7D80939F039093A003A0934F
:1051C000A103B093A2032FC0E091CA04F091CB04D5
:1051D000E358FF4F108211821282138210929903BA
:1051E00040919F035091A0036091A1037091A2038D
:1051F000437C40939F035093A0036093A10370935B
:10520000A20380E00E94821B123069F4898159DE7A
:10521000672B682B692B21F0BE0180E068DE03C09C
:10522000BE0180E0CFDBCDB7DEB7E0E10C94E984CE
:105230001F93CF93DF93182FEB01813041F150F092
:105240008230B9F1833009F052C06FEFCE010E9475
:1052500008212FC089810E949E168093E00C8981CD
:105260000E94B516682F70E080E090E00E940E86E4
:10527000AB01BC018091CA049091CB040E94E4640C
:1052800080E044D462E0CE010E94082130C0E09169
:10529000E00CF0E0EE0FFF1FE653FB4F0190F081B2
:1052A000E02DE256FF4F8081882309F181E057D439
:1052B0001EC080E02BD440919F035091A0036091C9
:1052C000A1037091A203477E40939F035093A003D4
:1052D0006093A1037093A20380E00E94821B81E08F
:1052E0000E94821B123019F4BE0180E0C0DEDF9103
:1052F000CF911F9108951F93CF93DF93182FEB0148
:105300008130F9F048F0823049F18330B9F56FEF20
:10531000CE010E94082122C00E941218892B61F040
:105320008091040390910503A0910603B0910703B7
:10533000892B8A2B8B2BE1F061E0CE010E940821A2
:105340001DC04091040350910503609106037091C4
:105350000703452B462B472B89F412E080E0D6D378
:1053600080E0FDD3123051F4BE0180E061DF06C061
:105370000E941218BC0180E067D3DECFDF91CF918D
:105380001F910895A0E0B0E0E8ECF9E20C94D1841C
:10539000182FEB01813009F4A6C058F0823009F4CF
:1053A000F4C0833009F024C16FEFCE010E940821C0
:1053B000ECC0898145DD0091CA041091CB040358EB
:1053C0001F4F0E940E8620E030E04AE754E40E941E
:1053D000C486F801608371838283938389817EDC34
:1053E0000091CC041091CD0403581F4F0E940E86EB
:1053F00020E030E04AE754E40E94C486F80160836C
:1054000071838283938389810E949E16811166C075
:105410008091CA049091CB040E9460674B015C01AB
:105420000091CA041091CB04F801C788D08CE18C9C
:10543000F28CE091CC04F091CD04E358FF4F20E0D2
:1054400030E04AE754E460817181828193810E9457
:1054500075859B01AC01C501B4010E940D85A701B2
:1054600096010E94718587FF1CC0C8010E94606779
:105470006B017C01E091CC04F091CD04E358FF4F27
:1054800020E030E04AE754E46081718182819381B9
:105490000E9475859B01AC01C701B6010E940D8574
:1054A00002C0C701B6010091CA041091CB04035891
:1054B0001F4F20E030E04AE754E40E94C486F80120
:1054C0006083718382839383E091CC04F091CD0457
:1054D000E358FF4F108211821282138260E0CE01E6
:1054E0000E94082185C08091CA049091CB040E943B
:1054F00060676B017C01E091CA04F091CB04E35832
:10550000FF4F20E030E04AE754E4608171818281FE
:1055100093810E9475859B01AC01C701B6010E9471
:10552000C08687FD65C08091CC049091CD040E9417
:1055300060676B017C01E091CC04F091CD04E358ED
:10554000FF4F20E030E04AE754E4608171818281BE
:1055500093810E9475859B01AC01C701B6010E9431
:10556000C08687FD45C080919F039091A003A091C4
:10557000A103B091A2038E7F80939F039093A00319
:10558000A093A103B093A20333C0E091CA04F091A9
:10559000CB04E358FF4F1082118212821382E091F4
:1055A000CC04F091CD04E358FF4F10821182128297
:1055B00013821092970340919F035091A003609132
:1055C000A1037091A2034C7F40939F035093A003CB
:1055D0006093A1037093A203123051F40E94121839
:1055E000BE01892B19F080E086DE02C080E020DE5B
:1055F000CDB7DEB7ECE00C94ED84CF93C82F0E94BA
:10560000C4170E940E862AE939E949E15EE30E9447
:10561000C48620E030E0A9010E94C08687FD12C048
:105620008C2F0E94C4170E940E862AE939E949E1AD
:105630005EE30E94C48620E030E040E05FE30E9429
:105640000D8511C08C2F0E94C4170E940E862AE976
:1056500039E949E15EE30E94C48620E030E040E0A1
:105660005FE30E940C850E94DD85CF910895CF9362
:10567000DF93D82F60E0C1E0C60F8D2F0E94601627
:10568000811104C0C63011F06C2FF5CFDF91CF919E
:1056900008954F925F926F927F928F929F92AF92F6
:1056A000BF92CF92DF92EF92FF92CF93782EDFDFFF
:1056B000682F70E080E090E00E940E866B017C0114
:1056C0000E94E515C82F872D09DB4B015C01872D52
:1056D0000E94C4172B013C01C501B4010E940E8633
:1056E00020E030E040E850E40E94C4864B015C01B9
:1056F000C301B2010E940E869B01AC01C501B40139
:105700000E9475859B01AC016DEC7CEC8CE49EE302
:105710000E9475854B015C016C2F70E080E090E089
:105720000E940E869B01AC01C701B6010E940C8548
:105730009B01AC01C501B4010E94C486A70196017A
:105740000E940D8520E030E0A9010E940D850E9495
:10575000E285862FCF91FF90EF90DF90CF90BF90A2
:10576000AF909F908F907F906F905F904F90089533
:10577000E5E4F4E080E090E88193919324E0E7355C
:10578000F207D1F765E086EF9CE00E945183809399
:10579000F50C882371F186EF9CE00E945E8286EF13
:1057A0009CE00E94998241E06EE486EF9CE00E94BA
:1057B0007A8241E06BE486EF9CE00E947A8241E0CD
:1057C00066E486EF9CE00E947A8241E06FE586EF16
:1057D0009CE00E947A8286EF9CE00E945E8286EFC7
:1057E0009CE00E94998241E068E486EF9CE00C9482
:1057F0007A8208958091F50C811101C0B9DF80E0B3
:10580000089520E0FC013191CF01311105C02F5FD7
:105810002830C1F780E0089581E00895A8E0B0E065
:10582000E4E1FCE20C94D8848C0186EF9CE00E94B9
:10583000008285E1F82EBE016F5F7F4F86EF9CE00E
:105840000E94B782811105C086EF9CE00E94008211
:105850002AC08981883211F0803191F427E534E043
:10586000FE01319640E050E09191D901A40FB51F9F
:105870008C91981308C04F5F5F4F48305105A1F7D6
:10588000FA94C9F610C0285F3F4F84E02F393807DB
:1058900039F7D801CE010996FE01319621912D9359
:1058A000E817F907D9F72896E5E00C94F4841F93DC
:1058B000CF93DF93EC018091F50C811101C058DF8B
:1058C0008091F50C811103C080E090E843C086EF21
:1058D0009CE00E945E82BE0186EF9CE00E949C825A
:1058E00041E06EEB86EF9CE00E947A8286EF9CE0BE
:1058F0000E948183182F86EF9CE00E948183982F5D
:1059000091239F3F09F3A82FB0E0BA2FAA27A10F38
:10591000B11D8881803139F422E330E00E94478450
:105920009B01AC010AC029E130E00E94478424E0D9
:1059300030E040E050E00E94AF84A9E0B0E00E9477
:105940004D8425E030E040E050E00E94AF84C90182
:105950008058934FDF91CF911F910895EF92FF925E
:105960000F931F93CF93DF938091F50C811101C0AA
:10597000FFDE8091F50C882309F45CC08091F10C66
:105980009091F20CA091F30CB091F40C892B8A2B1E
:105990008B2BC9F486EF9CE00E945E8286EF9CE030
:1059A0000E94998241E064E486EF9CE00E947A8242
:1059B0000E94E86F6093F10C7093F20C8093F30CEB
:1059C0009093F40C37C016DF811113C00E94E86F6A
:1059D0000091F10C1091F20C2091F30C3091F40C29
:1059E000601B710B820B930B67377140810591052A
:1059F00008F107E514E0C5E4D4E0E12C20E8F22E3C
:105A0000C801FFDE882329F0C80151DF998388830C
:105A100002C0F982E882085F1F4F229684E00F39A6
:105A2000180771F71092F10C1092F20C1092F30C0F
:105A30001092F40CCDB7DEB7E6E00C94F3846BE182
:105A400086EF9CE00C94FC81A0E0B0E0EAE2FDE28D
:105A50000C94D684D82EEB016F3F8FEF780749F175
:105A60000D2D10E07801EE0CFF1CEE0CFF1CF70171
:105A7000EC5FFC4F20E63AEEDB010E944784608336
:105A80007183828393830E94E86FF701E450FD4F96
:105A90006083718382839383F801E650FD4F81E038
:105AA000808361E08D2D0E948515BE018D2D0E94A1
:105AB0007E18CDB7DEB7E7E00C94F284FF920F9327
:105AC0001F93CF93DF93F82E082F10E0E801C65004
:105AD000DD4F8881882311F018820FC081E0888310
