:10000000C9C600000C946A8B0C949B8B0C94CC8B0F
:100010000C94697E0C94927E0C94BB7E0C94E47ECE
:10002000E7C60000E5C60000E3C60000E1C6000028
:10003000DFC60000DDC60000DBC60000D9C6000038
:10004000D7C60000D5C600000C94D175D1C60000FB
:100050000C947B720C940573CBC60000C9C60000DB
:10006000C7C60000C5C600000C943D79C1C600009B
:100070000C94BA720C944473BBC60000B9C600005D
:10008000B7C60000B5C60000B3C60000AC07A8079D
:10009000AF07B207B507B807BB07BE073C0D180E80
:1000A000790EDA0B030C450CA70CE50D300F4E0F43
:1000B0008A0FA80FB90FD40BE20B350C4E0CC10DF3
:1000C0001D0FD50F6D0FED0FED0FED0F0B1019106C
:1000D0006B107E107E102C0D1F0D600D510D820DCA
:1000E000730D1A0BC0107D11DD0F11109C11AB1197
:1000F000B9119711A511B411B612B6120310AA10B6
:10010000C111DA11F7110612701063100F126E117F
:10011000AB0D950DB61218124B1269128D124A11C1
:100120005311BB123D1143114A115311BB12BB12A3
:10013000BB12BB12BB12BB125D116511F276F576D4
:10014000E876EC760C77F976FD7603770777076328
:100150004236B79BD8A71A39685618AEBAAB558C39
:100160001D3CB7CC5763BD6DEDFD753EF617723182
:10017000BF000000803F08000000BE922449123EEC
:10018000ABAAAA2ABECDCCCC4C3E00000080BEABB0
:10019000AAAAAA3E00000000BF000000803F0000A5
:1001A000000000084178D3BB4387D1133D190E3CB2
:1001B000C3BD4282AD2B3E68EC8276BED98FE1A9E9
:1001C0003E4C80EFFFBE01C4FF7F3F0000000000F7
:1001D00053595300001313001D00031308000200BD
:1001E00000001D0003130813020E0E0E0000030191
:1001F0000113131313131300000113000000000078
:1002000000000000000102020003030000001313BD
:1002100000020200000016000000000000000000C4
:1002200001000102010806080102000001010101AC
:1002300001010001000600060002000000000000AD
:1002400001010100000000000000000000000000AB
:10025000030001000200040E0E0E1F000400011D29
:10026000151D1111011F060909080F0F0F000203C8
:100270001F1E02031F1E040C0F07040C0F070000B3
:100280000000001C031F0000000000030C0F000012
:10029000001F11111F01111F0000000000001F1F8F
:1002A0000000000000001F00000000000000940B90
:1002B0008A0B800B760B6C0B620B570B480B3D0BBC
:1002C000330B280B1C0B160B0D0B040BF80AEC0A56
:1002D000DF0AD20AC50AA50AA00A980A920A8B0A5E
:1002E000820A302E312A712F6D0046006C62006741
:1002F000616C00496E7075742050696E2028303D25
:100300004E6F6E65293A004E6F6E65004B657474D2
:100310006C65204D696E3A20004D617368204D690F
:100320006E3A2000484C54204D696E3A20005370BC
:1003300061726765204D61783A2000452D53746FD6
:10034000703A2000436F6E74726173743A004272A7
:10035000696768746E6573733A0041646A75737493
:10036000204C434400526573657420436F6E666988
:100370006775726174696F6E3F003E20436F6E74E3
:10038000696E7565203C0055706461746520466136
:10039000696C6564004E65772041646472657373AF
:1003A000003A2052657472793F004572726F722074
:1003B0000054696D656F757400636C69636B2074BC
:1003C0006F2061637469766174652E006F75747057
:1003D000757420626F617264207468656E00436C8E
:1003E00069636B2F686F6C6420746F20726573652E
:1003F00074004F7574707574204F66667365740071
:10040000436F696C20436F756E7400436F696C2095
:1004100052656769737465720052533438352052DF
:10042000656C61792041646472657373004944208E
:100430004D6F64653A20004175746F204173736994
:10044000676E004F66667365743A2000436F756E81
:10045000743A200052656769737465723A20004EE1
:100460002F4100416464726573733A200045525213
:100470004F52003A2054494D454F5554003A2043BD
:100480004F4E4E4543544544003A2044495341425F
:100490004C454400426F61726420005D005B005E69
:1004A000003100536176650054657374004D616ED0
:1004B00075616C20566F6C756D6520456E74727930
:1004C000004D616E75616C20456E74727900205428
:1004D0004F2000557064617465200043616C69624F
:1004E000726174650043757272656E7420566F6C2C
:1004F000756D653A004F50454E00290020280025B3
:100500002F6872002043616C6962726174696F6E5A
:10051000002044656164205370616365002043617D
:1005200070616369747900457661706F7261746996
:100530006F6E20526174650050756D7020466C6F4F
:100540007720526174650020487973746572657311
:1005500069730020504944204761696E002050496A
:1005600044204379636C65004F6E2F4F66660050E0
:100570004944005370617267652050756D703A2070
:10058000004B6574746C65204D6F64653A20004DB6
:10059000617368204D6F64653A2000484C54204DCB
:1005A0006F64653A20002D2D2D0074656D702073E9
:1005B000656E736F7273206E6F7700446973636F3B
:1005C0006E6E65637420616C6C206F746865720078
:1005D00044656C657465204164647265737300538F
:1005E00063616E204275730041737369676E2054B6
:1005F000656D702053656E736F720041757820339E
:1006000000417578203200417578203100426565DF
:1006100072204F757400483230204F757400483294
:100620003020496E0042726577204B6574746C65AA
:100630000021071C07150710075472696767657268
:100640007300446973706C617900525334383520FB
:100650004F7574707574730056616C7665205072B6
:100660006F66696C657300566F6C756D652F4361BD
:10067000706163697479004F757470757473005498
:10068000656D70657261747572652053656E736F08
:100690007273003A20203A0044656C657465204905
:1006A00074656D3F0052657365740074696D6572A1
:1006B0007320616E64206F7574707574733F00727F
:1006C0006573657420736574706F696E74732C0044
:1006D00041626F7274206F7065726174696F6E2011
:1006E000616E640020436C65617220452D53746F08
:1006F00070003E436C65617220416C61726D004513
:100700002D53746F70205472696767657265640059
:1007100050756D70004B6574746C65004D61736845
:1007200000484C540070726F6772616D2E00466114
:10073000696C656420746F20616476616E63650026
:10074000426F696C204361706163697479204973F9
:10075000737565004D6173682043617061636974EE
:100760007920497373756500484C5420436170616A
:1007700063697479204973737565002020204D6981
:100780006E0020204D696E00204D696E004174207E
:10079000426F696C00477261696E204C6F73733AE7
:1007A00000477261696E20566F6C3A005072656244
:1007B0006F696C20566F6C3A0053706172676520E8
:1007C000566F6C3A00537472696B6520566F6C3AC1
:1007D00000537472696B652054656D703A007174D2
:1007E000732F6C6200477261696E20576569676894
:1007F0007400426174636820566F6C756D650050BB
:10080000726F6772616D2043616C637300554E4B6C
:10081000574E004D4153480048656174205374722F
:10082000696B6520496E3A004D61736820536368B7
:100830006564756C650050697463682054656D70FB
:10084000005370617267652054656D7000484C54A8
:100850002054656D703A004E6F5370617267650089
:100860003A31004D61736820526174696F00204D08
:10087000696E00426F696C204C656E677468004752
:100880007261696E2057743A004261746368205641
:100890006F6C3A006163746976652E007768696CE5
:1008A00065206D617368207A6F6E652069730043FF
:1008B000616E6E6F742073746172742070726F67F2
:1008C00072616D0050726F6772616D207374617236
:1008D00074206661696C65640044656C61792053BD
:1008E0007461727400537461727400477261696E4E
:1008F0002054656D7000456469742050726F677292
:10090000616D0050726F6772616D204E616D653A66
:1009100000426F696C2054696D657200426F696CAA
:1009200020506F77657200426F696C2054656D705E
:1009300000426F696C204374726C3A20004B6574FE
:10094000746C652054617267657420566F6C004B3F
:100950006574746C652054617267657400417574C8
:100960006F20466C79004175746F204F757400419B
:1009700075746F20496E004D6173682054696D6510
:1009800072004D61736820536574706F696E7400F6
:100990004D6173682054617267657420566F6C00F6
:1009A0004D61736820546172676574004175746F9E
:1009B0002046696C6C006973206163746976650018
:1009C0006D617368206F7220626F696C207A6F6E40
:1009D000650043616E6E6F7420647261696E20778A
:1009E00068696C650053797374656D20536574751F
:1009F0007000526573657420416C6C0053746172B1
:100A0000742050726F6772616D0045646974205084
:100A1000726F6772616D004155583300415558320D
:100A20000041555831004155582054656D70730090
:100A30004368696C6C20426F7468004F757400499C
:100A40006E004832300042656572004368696C6C24
:100A50000020204175746F00426F696C00466C790C
:100A6000205370617267650046696C6C20426F7438
:100A7000680053706172676500456E64204D617354
:100A800068004D617368204F75740053616363683B
:100A9000320053616363680050726F7465696E0061
:100AA0004163696400446F75676820496E00507245
:100AB00065686561740044656C61790047726169BD
:100AC0006E20496E00557365722056616C76652004
:100AD0003300557365722056616C7665203200557F
:100AE0007365722056616C76652031004B657474B5
:100AF0006C652049646C65004B6574746C652048B6
:100B000065617400484C542049646C6500484C543D
:100B1000204865617400447261696E00426F696CBF
:100B200020526563697263004368696C6C2042659A
:100B30006572004368696C6C2048324F004B6574E5
:100B4000746C65204C696400426F696C2041646478
:100B50006974696F6E7300537061726765204F75B9
:100B6000740053706172676520496E004D6173684F
:100B70002049646C65004D617368204865617400AC
:100B800041646420477261696E0046696C6C204D57
:100B90006173680046696C6C20484C54005265666D
:100BA000696C6C0046696C6C007777772E627265B1
:100BB0007774726F6C6C65722E636F6D00506C652C
:100BC00061736520576169742E2E2E00496E697419
:100BD00069616C697A6520454550524F4D004D69F9
:100BE0007373696E6720436F6E6669670044656C56
:100BF00065746500300073004D6173682054756E34
:100C000000486F74204C6971756F722054616E6B6F
:100C100000484C5420536574706F696E74003A201C
:100C20004F6666003A204F6E00484C542054617263
:100C300067657420566F6C00484C5420546172678D
:100C4000657400416C6C204F6666000025003A20F8
:100C50000053746172742054696D6572005061753F
:100C600073652054696D6572005365742054696D15
:100C70006572004D616E75616C004175746F002D79
:100C80002D2E2D2D2D002D2D2D2D004F6666004F64
:100C90006E003A003C003E0041637475616C005484
:100CA000617267657400436F6E74696E75650020CC
:100CB000004D656E750041626F727400457869740D
:100CC0000043616E63656C004F6B0076332E302EEF
:100CD000302D6132004272657754726F6C6C6572B0
:100CE00000000000010200000000000000040307F3
:100CF00006000000000000000000000000000000EE
:100D00000001020408102040800102040810204065
:100D10008001020408102040808040201008040256
:100D20000102020202020202020404040404040496
:100D30000403030303030303030101010101010190
:100D400001000020002300260029000000220025C9
:100D50000028002B0000002100240027002A00109A
:100D6000111213141516173031323334353637203B
:100D7000212223242526270706050403020100005B
:100D80004008E7125D30CD31C0745078137B0D7F81
:100D9000C4845F0811241FBECFEFD0E4DEBFCDBFF7
:100DA00012E0A0E0B1E0E4E0F5E201E00BBF02C038
:100DB00007900D92A23FB107D9F71FE0A2EFB2E072
:100DC00001C01D92A83CB107E1F71DE0C2E9DDE0DA
:100DD00000E006C022970109FE010BBF0E94D28CE1
:100DE000C038D10780E00807A9F73FD10C94719271
:100DF00007C9DC01ED91FC910190F081E02D09958E
:100E000008950F931F930E941B760091F202109198
:100E1000F3022091F4023091F502601B710B820BFA
:100E2000930B6F3E72408105910570F080E594E070
:100E30000E94007D0E941B766093F2027093F30281
:100E40008093F4029093F5021F910F910895A0E012
:100E5000B0E0EDE2F7E00C949D8C8C01B12C6C01BC
:100E600081E5C80ED11CF801E05BFF4F7F01F60160
:100E700080818823C9F0F70160818AE29EE00E94A8
:100E8000307863E070E08AE29EE0B3DF60E08AE2FF
:100E90009EE00E94C6776B2D8AE29EE00E94C67794
:100EA0008AE29EE00E944E78C0E0D0E0F6018081A8
:100EB000F801EC0FFD1FA080F7016081882379F015
:100EC0008AE29EE00E94307865E170E08AE29EE06E
:100ED00090DF6A2D70E08AE29EE08BDF18C08AE224
:100EE0009EE00E94307866E070E08AE29EE081DF5A
:100EF0006C2F8AE29EE00E94C6776B2D8AE29EE00C
:100F00000E94C6776A2D8AE29EE00E94C6778AE236
:100F10009EE00E944E782196C431D10539F6B394F3
:100F20000C5E1F4FF4E0BF12A2CFCDB7DEB7EAE0F0
:100F30000C94B98C66DF0E94DA208091F60290E072
:100F40008830910548F5FC01EA5BFF4F0C94CC8C8E
:100F500084EA93E07CDF20C00E94F5301DC00E942F
:100F6000EC2F1AC00E94EA3017C00E94856E14C090
:100F70000E94CF2711C00E9471130EC080917F0480
:100F8000909180040E940F1D8091810490918204B1
:100F90000E940F1D0E94F7218091F6028F5F88301A
:100FA00018F48093F60208951092F602089560E115
:100FB00070E08AE29EE00E941E78D7D00E94A920AD
:100FC0004CE160E081E493E00E9414234DE161E094
:100FD00081E493E00E9414234EE162E081E493E017
:100FE0000E9414234FE163E081E493E00E94142304
:100FF00047E064E081E493E00E94142346E065E06A
:1010000081E493E00E94142343E066E081E493E0EE
:101010000E94142344E067E081E493E00E941423DB
:101020004CE068E081E493E00E9414234FE069E023
:1010300081E493E00E94142381E493E00E947823EA
:101040000E94F62E0E94F3190E94C11A0E94642089
:101050000E94D9200E94DF590E94276E0E94CA1E5A
:101060000C94AA270E94C66465CF0E9479769FDF00
:10107000C8EFD2E7F7DF2097E9F30E94F872FACFC2
:10108000CF93DF9387E794E00E94897CCFE5D4E09B
:10109000CE010E94897C249684E0C737D807C1F727
:1010A00080E594E00E94897C81E08093F4036AE00B
:1010B00081E493E00E940023DF91CF91089581E4C1
:1010C00093E00C940F2322E0FC0125A70C940F1D44
:1010D000AB01BC012AE030E08EEE9CE00E94C475BA
:1010E0006AE371E08EEE9CE00C943975CF93DF9348
:1010F000EC01BE01FE018491882341F02196FB01A1
:1011000064918EEE9CE00E943C75F3CF6AE371E03F
:101110008EEE9CE00E943975DF91CF9108950E9478
:101120001B76D6DF80ED91E0E1DF67E371E08EEEC4
:101130009CE00E9439758BEC9CE0D8DF60E070E0A9
:10114000CB01C6DF61E070E080E090E0C1DF60E0ED
:1011500070E0CB01BDDF6CE371E08EEE9CE00E949D
:1011600039758EEE9CE00C94447540E052EC61E0E1
:1011700070E08EEE9CE00E94B57380911A0181119F
:10118000CECF0895FC01ED5FFB4F11821082FC0170
:101190001282118210820895FC01ED5FFB4F2081C5
:1011A0003181DC0111964D915C911297241735071E
:1011B00050F4A9014F5F5F4F51834083FC01E20F60
:1011C000F31F8381089580E00895FC0180818330BE
:1011D00081F4DF01AD5FBB4F2D913C91119781816F
:1011E00092812817390729F41D921C9212821182CC
:1011F000108280810895CF93DF93FC0181819281D9
:10120000009759F09C012F5F3F4F32832183DF010C
:10121000A80FB91F29E013962C93DB018C9188232A
:1012200069F0818192819C012F5F3F4F328321833E
:101230002D91EF01C80FD91F2B83F0CFDF91CF91F4
:101240000895AFE0B0E0E7E2F9E00C94A38C8C01E4
:10125000CA0169831A824F3F2FEF520771F04AE0AB
:1012600050E0BE01675F7F4F0E94E591BE01675F5E
:101270007F4FCE0101960E94D391F8011282118214
:10128000BE016F5F7F4FC801B6DF2F96E4E00C947C
:10129000BF8CDC0111968D919C9112979C012F5F60
:1012A0003F4F12963C932E931197FD01E80FF91FC3
:1012B00029E023839B01FB018491882399F01196F7
:1012C0008D919C911297AC014F5F5F4F12965C938A
:1012D0004E9311976F5F7F4FF9012491FD01E80F45
:1012E000F91FE7CF0895ABE0B0E0E9E7F9E00C942F
:1012F000A38C8C01CB01BA012AE030E0AE014F5F34
:101300005F4F0E940C92BE016F5F7F4FC80173DF79
:101310002B96E4E00C94BF8CA4E1B0E0E2E9F9E0A4
:101320000C94A28C8C01F12C8F2D0E94AF24482F9D
:1013300050E060E070E0C801D6DFBE016F5F7F4F14
:101340008F2D0E94B724BE016F5F7F4FC80153DF0E
:101350008F2D0E94C024482F50E060E070E0C8014B
:10136000C2DFF39482E0F812DFCF6496E5E00C94DC
:10137000BE8CFC01818192818F3F23E0920710F0A7
:101380008EEF93E0DF01A80FB91F2DE013962C9389
:1013900013970296928381838AE014968C93DF01DF
:1013A000AD5FBB4F1D921C9283E080830895CF9365
:1013B000DF93FC0181819281009729F102968130AF
:1013C00024E0920710F080E094E092838183DF01B3
:1013D000AD5FBB4F019711969C938E938D919C911D
:1013E00011978230910560F09C01215031091196CE
:1013F0003C932E93EF01C80FD91F89818B83EECFC9
:1014000089E0848304C081E090E0928381836383D8
:10141000CF01AFDFDF91CF910895ABE0B0E0E3E122
:10142000FAE00C94A38CDC011396EC911397F0E096
:10143000EA56FE4F1491112309F442C0AD5FBB4F31
:1014400021E030E011963C932E93FC016181728182
:101450002D913C9111972617370720F02130310547
:1014600021F42BC02B30310558F0FE01E20FF31FA1
:101470001082CE0101960E94679197FF19C01DC08E
:10148000FC01E20FF31F0381093041F3402F50E0CC
:10149000405351094A30510580F4A9014F5F5F4F15
:1014A00011965C934E932C0F3D1FF9010083D0CF12
:1014B000E12FF0E0E817F9072CF48FEF9FEF02C05F
:1014C00080E090E02B96E4E00C94BF8CFC0141811D
:1014D000528190E080E0292F30E02417350750F446
:1014E000DF01A20FB31F13962C91293009F48F5FEF
:1014F0009F5FF1CF08951F93CF93DF93FC01CA0143
:10150000A181B28130E010E0412F50E04A175B0723
:1015100018F0DC0130E015C03617D8F71F5F4E0F0A
:101520005F1FEA014B81493079F73F5FEDCF4E0FE6
:101530005F1FEA014B81493061F0321751F03F5F84
:101540004D93432F410F50E0618172814617570739
:1015500070F3FC01E30FF11D1082DF91CF911F9119
:101560000895A4E1B0E0E7EBFAE00C94A58C2AE042
:10157000AE014F5F5F4FBFDF4AE050E060E070E0D8
:10158000CE0101960E9456906496E2E00C94C18CC4
:10159000A8E1B0E0EEECFAE00C94958C5C0182E0FE
:1015A000D5018C9324E145E253E060E0C501A3DF5F
:1015B0006EE371E00E94C091892B59F4B0DDF50112
:1015C000ED5FFB4F11821082F501128211821082B1
:1015D000D5C7D50111968D919C911297892B09F44D
:1015E000C5C713961C9182EC810F813408F0BEC7E9
:1015F000C5016CDFE12FF0E0E952FE4FE4918E1758
:1016000011F063E2B4C7C50108DF4C018F3FBFEFA3
:101610009B0711F464E2ABC7F5012381822F90E0B0
:10162000FC01FE97E134F10508F0A0C7E25BFF4F33
:101630000C94CC8C4FEF5FEF61E6C50102DE409168
:10164000F90250E060E070E0C5014DDE0E94932297
:10165000482F50E060E070E0C50145DE4091500346
:10166000509151036091520370915303C5013BDEC9
:101670000E945021AB01BC01C50135DE03E814E036
:101680007801D8018D919C910E94B6670E94AC8D23
:10169000AB01BC01C50127DEF801808191810E9468
:1016A000C1670E94AC8DAB01BC01C5011CDED80135
:1016B000ED91FC91DF01AD52BF4F21AD32AD43AD95
:1016C00054AD6D917D918D919C910E943F8D0E94B2
:1016D000AC8D462F50E060E070E0C50104DEF801FB
:1016E000819191918F010E94736C0E94AC8DAB012E
:1016F000BC01C501F8DDD701ED91FC91E058FF4F29
:1017000020E030E04AE754E4608171818281938176
:101710000E943F8D0E94AC8DAB01BC01C501E3DD91
:1017200040E050E0BA01C501DEDDB4E009381B0736
:1017300009F0A6CF0CEF13E0F801419151918F0110
:10174000662757FD6095762FC501CDDDF4E00830A2
:101750001F0791F740910403509105036091060320
:1017600070910703C501BFDD4091FA0250E060E0CF
:1017700070E0C501B8DD4091080350910903609104
:101780000A0370910B03C501AEDD4091FB0250E0EE
:1017900060E070E0C501A7DD4091F80250E060E034
:1017A00070E0C501A0DD34C461E0C501DADE862F3A
:1017B0000E9459164FEF5FEF61E4C50142DD0E94C0
:1017C00053166AC0C4016AE070E00E94448C8B0129
:1017D000782C2AE0629F7018112461E0C501C1DEF7
:1017E0006B017C0162E0C501BCDE9B01AC01F8012C
:1017F000FF27EE0FFF1FED57FB4F8601672D8081FE
:1018000091810E94046CA40162E4C5011ADDC40147
:101810006AE070E00E94448C8B0111278AE0689F87
:1018200080181124912C000F111F0D571B4FD80148
:10183000ED91FC91B6E18B0E911C880C991C880CE3
:10184000991CE80DF91D4081518162817381C501A8
:101850004ADDD801ED91FC91E80DF91D40815181DF
:1018600062817381662777277DC661E0C50179DED5
:10187000643671058105910528F461E0C50171DECA
:10188000862F01C084E60E947C164FEF5FEF63E471
:10189000C501D7DC0E948316482F61C661E0C501EF
:1018A00060DE21E0672B682B692B09F420E014012E
:1018B000220C331CF101ED57FB4F1F01622F808179
:1018C00091810E94876B62E0C5014BDE0E94D88D3A
:1018D000AB01BC01D1018D919C910E94D76B65E059
:1018E000C5013FDE6B017C0164E0C5013ADE2B01DE
:1018F0003C0163E0C50135DE6D8B7E8B8F8B988F4D
:10190000C701B6010E94D88D6B017C01C301B201F1
:101910000E94D88D2B013C016D897E898F89988D1D
:101920000E94D88DAB01BC0193018201F10180813D
:1019300091810E94E86766E0C50113DE0E94D88DA0
:10194000AB01BC01D1018D919C910E94AF6BA401B0
:1019500064E4C50176DC8401000F111FF801ED5726
:10196000FB4F7F010190F081E02D45A950E060E040
:1019700070E0C501B8DCD701ED91FC9161AD72ADAD
:1019800083AD94AD0E94AC8DAB01BC01C501ABDC55
:10199000D701ED91FC9186A997A9009719F00E94B3
:1019A000B48904C060E070E080E490E40E94AC8DF3
:1019B000AB01BC01C50197DCF801ED57FB4F01906D
:1019C000F081E02D86A997A9009719F00E94BA89A5
:1019D00004C060E070E080E890E40E94AC8DAB0150
:1019E000BC01C50180DCF801ED57FB4F0190F0818F
:1019F000E02D86A997A9009719F00E94C08904C01C
:101A000060E070E080E89FE30E94AC8DAB01BC0118
:101A1000C50169DCF801ED57FB4F0190F081E02D25
:101A2000FD9660817181828193810E94AC8DAB01B2
:101A3000BC01C50158DC40E050E0BA01B4C423E168
:101A4000AE014F5F5F4F61E0C50155DDBE016F5FC5
:101A50007F4F882D0E940B17A4016BE5C501F1DBB8
:101A6000BE016F5F7F4F882D0E942F17BE016F5FF1
:101A70007F4FC501C0DB7FC54FEF5FEF6EE3C50150
:101A8000E0DB10E0BE016F5F7F4F812F0E942F17B8
:101A9000BE016F5F7F4FC501AEDB1F5F143191F751
:101AA0006AC510E001E0010F602FC5015ADD462F25
:101AB000612F882D0E947217063011F0102FF2CF7F
:101AC000A4016DE5C501BDDB10E0612F882D0E94EA
:101AD0008017482F50E060E070E0C50104DC1F5F14
:101AE000163099F748C510E001E0010F602FC501DD
:101AF00038DD462F612F882D0E949317063011F094
:101B0000102FF2CFA4016FE5C5019BDB10E0612F20
:101B1000882D0E94A417482F50E060E070E0C501B6
:101B2000E2DB1F5F163099F726C561E0C50119DDBC
:101B3000AB01BC01882D0E940F1962E0C50111DDC7
:101B4000AB01BC01882D0E94161963E0C50109DDB7
:101B5000882D0E94BA19A40168E7C50172DB882D9F
:101B60000E94DE18AB01BC01C501BDDB882D0E94BF
:101B7000E518AB01BC01C501B6DB882D0E943D19FB
:101B8000F1C361E0C501EDDC882D0E94561762E0CB
:101B9000C501E7DC882D0E94C91763E0C501E1DCBF
:101BA000882D0E94AE1964E0C501DBDC882D0E94FF
:101BB000E51765E0C501D5DC882D0E94C11966E0F6
:101BC000C501CFDC882D0E94B217A40165E4C501D0
:101BD00038DB882D0E946217482F50E060E070E0EB
:101BE000C50181DB882D0E94D517482F50E060E0A9
:101BF00070E0C50178DB882D0E943619AC0160E0E9
:101C000070E0C50170DB882D0E94F117482F50E06D
:101C100060E070E0C50167DB882D0E944419AC01CB
:101C200060E070E0C5015FDB882D0E94BE1734CEF6
:101C300023E1AE014F5F5F4F61E0C5015CDC182D11
:101C4000BE016F5F7F4F882D0E940B1762E0C501B8
:101C500088DCAB01BC01882D0E940F1963E0C5012F
:101C600080DCAB01BC01882D0E94161964E0C5011F
:101C700078DC882D0E94BA1935E0F32E00E06F2D34
:101C8000C5016FDC462F602F812F0E94721761E023
:101C90006F0DC50166DC462F602F812F0E949317C0
:101CA0000F5FF394F394063051F761E1C50159DCFD
:101CB000882D0E94561762E1C50153DC882D0E94D1
:101CC000C91763E1C5014DDC882D0E94AE1964E19E
:101CD000C50147DC882D0E94E51765E1C50141DC9F
:101CE000882D0E94C11966E1C5013BDC882D0E9448
:101CF000B217A40160E4C501A4DA182DBE016F5F1C
:101D00007F4F882D0E942F17BE016F5F7F4FC50147
:101D100072DA882D0E94DE18AB01BC01C501E3DA3E
:101D2000882D0E94E518AB01BC01C501DCDA882DC5
:101D30000E943D19AC0160E070E0C501D4DA00E01A
:101D4000602F812F0E948017482F50E060E070E0E4
:101D5000C501C9DA602F812F0E94A417482F50E0D7
:101D600060E070E0C501BFDA0F5F063049F7882DEB
:101D70000E946217482F50E060E070E0C501B3DABE
:101D8000882D0E94D517482F50E060E070E0C50113
:101D9000AADA882D0E943619AC0160E070E0C50116
:101DA000A2DA882D0E94F117482F50E060E070E021
:101DB000C50199DA882D0E944419AC0160E070E0F9
:101DC000C50191DA882D0E94BE17482F50E060E0CF
:101DD00070E0C50188DA882D0E94872E482F50E0D8
:101DE00060E070E0C5017FDA882D0E94752E482FD3
:101DF00050E060E070E0C50176DA882D0E94D428BA
:101E0000AB01BC01C5016FDA882D0E94622AAB01CB
:101E1000BC01C50168DA882D0E94142BAB01BC01FE
:101E2000C50161DA882D0E943B2EAB01BC01C501C2
:101E30005ADA882D0E94282A49C3FE0131967F0173
:101E4000D12C8F01D3946D2DC5018BDBD7016D9300
:101E50007D01B8E0DB12F6CFB801882D0E94841A0C
:101E6000A40166E4C501EDD923E0880C991C2A95EC
:101E7000E1F7F401E85FFB4F4F0100E010E0F401EF
:101E8000E00FF11F408150E060E070E0C5012BDA07
:101E90000F5F1F4F0830110591F76DC34FEF5FEFD4
:101EA00067E4C501CED96BEC7CE0C501F2D943E013
:101EB00050E060E070E0C50116DA41E050E060E01B
:101EC00070E0C50110DA40E050E0BA01C5010BDA5C
:101ED00041E050E060E070E045C361E0C50141DBF6
:101EE0000E94D88DAB01BC018401000F111F0D575A
:101EF0001B4FD8018D919C910E94466C62E0C501F8
:101F000030DB0E94D88DAB01BC01F801808191814A
:101F10000E945D6CA40168E4C50193D98401000F9F
:101F2000111F0D571B4FD801ED91FC91608D718DE4
:101F3000828D938D0E94AC8DAB01BC01C501D3D9BC
:101F4000D801ED91FC91648D758D868D978DBCC205
:101F500061E0C50106DB623D71058105910509F06F
:101F600050CB4FEF5FEF69E4C5016BD90E94591860
:101F700002C34FEF5FEF6AE4C50163D9CE0101965A
:101F80000E944C2F8E010F5F1F4F7E01B9E0EB0EB8
:101F9000F11CF80141918F0150E060E070E0C50153
:101FA000A2D90E151F05A9F7E6C261E0C501D9DA6D
:101FB000AB01BC01882D0E940119A40164E6C50192
:101FC00040D9F401EE0FFF1FEE0FFF1FEC5AFC4F3C
:101FD0004081518162817381C5C2253561F461E020
:101FE000C501BFDADC01CB01843108F00ACB682DD2
:101FF0000E94622708C0233511F462E001C063E04B
:10200000882D0E94E0274FEF5FEF6EE6C50119D9DA
:10201000C50182D9B0C261E0C501A3DA862F0E9452
:10202000ED304FEF5FEF65E6C5010BD94091F90246
:1020300096C261E0C50195DA00E010E0E62EF12CD1
:10204000C701002E02C0959587950A94E2F780FF9C
:1020500034C0023019F150F4002399F0013069F5D1
:1020600062E0809185049091860415C00430D9F017
:10207000F8F0063011F562E08091830490918404B9
:102080000AC080917B0490917C041DD880917D04CE
:1020900090917E0411C00E94FE6B0FC080917F045E
:1020A0009091800409C080917F04909180040BD8A6
:1020B000809181049091820406D80F5F1F4F0730F2
:1020C000110509F0BDCF4FEF5FEF65E7C501B9D846
:1020D0000E949322E1CB61E0C50143DA882D19D635
:1020E000A40164E7C501ADD8F401EE0FFF1FED5761
:1020F000FB4F808191810E94B667E6C161E0C50116
:10210000293591F42EDAF401E650FD4F2081022F9B
:1021100010E020E030E06017710782079307D1F0EC
:10212000882D0E949C3016C01CDA8401000F111FFC
:10213000000F111FF801EC5FFC4F608371838283F5
:1021400093830E941B76F801E450FD4F60837183F6
:1021500082839383A4016FE6C50173D8F401EE0F67
:10216000FF1FEE0FFF1FEC5FFC4F4081518162812A
:102170007381C501B8D8F401E650FD4F4081EFC12D
:1021800062E0C501EED9672B682B692BC1F061E0D5
:10219000C501E7D9009150031091510320915203DA
:1021A00030915303062B172B282B392B0093500308
:1021B00010935103209352033093530352C061E0B4
:1021C000C501CFD960957095809590950091500389
:1021D000109151032091520330915303062317238A
:1021E0002823392300935003109351032093520363
:1021F0003093530380917F0490918004DC019D967D
:102200001C920E940F1D8091810490918204FC0118
:1022100015A60E940F1D80917B0490917C04DC0127
:102220009D961C920E940F1D80917D0490917E04CA
:10223000FC0115A60E940F1D60E08091830490911F
:1022400084040E94FE6B60E0809185049091860476
:102250000E94FE6B60E080918504909186040E944C
:10226000FE6B61E0C5017DD96F30710508F083C157
:10227000FB01E157FF4F0C94CC8C61E08091850409
:10228000909186041FC060E070E080918504909179
:10229000860421C080917F049091800421E0DC01BC
:1022A0009D962C9307C0809181049091820421E037
:1022B000FC0125A70E940F1D5EC161E0809183048F
:1022C000909184040E94FE6B56C160E070E08091A2
:1022D0008304909184040E94656B4DC14FEF5FEFC2
:1022E00067E7C5010E9421094091500350915103B5
:1022F000609152037091530335C1F1E08F16910440
:1023000031F4E0918904F0918A04099534C1A40163
:1023100063E6C5010E9421090E9410280E94F9214C
:1023200080E00E94C43081E00E94C43024C161E09A
:10233000C50117D9862FC4D44FEF5FEF66E6C501FC
:102340000E94210940910C030AC161E0C50109D92D
:10235000CB010E94AA194FEF5FEF67E6C5010E940B
:10236000210981D7AC01FCC061E0C501FAD8862FF4
:1023700045D54FEF5FEF68E6C5010E94210945D5BD
:102380008BCAA40160E7C5010E942109F401EE0F88
:10239000FF1FED57FB4F808191810E94736C0E945B
:1023A000AC8DAB01BC01C5010E94730940E050E057
:1023B000BA01D8C0A40161E7C5010E942109C40186
:1023C000880F991FFC0123E08216910438F4ED5721
:1023D000FB4F808191810E94C16776C0EA50FC4F1B
:1023E00040815181662757FD6095762FBBC04FEF26
:1023F0005FEF62E7C5010E942109E0917F04F0913F
:10240000800464817581868197815EC0A40163E741
:10241000C5010E942109882D0E94ED223DCA4FEF7F
:102420005FEF66E7C5010E9421090E9450214EC05E
:1024300061E0C50196D88401000F111FF801ED5726
:10244000FB4F0190F081E02DC08CD18CE28CF38C9D
:102450000E94D88DA70196010E943B8D87FF06C080
:1024600061E0C5017ED80E94D88D02C0C701B601C7
:10247000F801ED57FB4F0081118100581F4F20E0FC
:1024800030E04AE754E40E948E8ED8016D937D932C
:102490008D939C931397A4016CE7C5010E942109B9
:1024A000F401EE0FFF1FED57FB4F0190F081E02D7F
:1024B000E058FF4F20E030E04AE754E4608171814A
:1024C000828193810E943F8D0E94AC8DAB01BC0143
:1024D00049C061E0C50145D86093F802613039F028
:1024E00020F06230D1F461E012C060E010C0DBD3B4
:1024F000682F70E080E090E00E94D88DAB01BC01B5
:1025000080918704909188040E94046A62E080911F
:102510008704909188040E94FE6B4FEF5FEF6EE797
:10252000C5010E9421094091F80250E060E070E08E
:10253000C5010E947309E0918704F0918804DF01CE
:10254000AD52BF4F21AD32AD43AD54AD6D917D91D4
:102550008D919C910E943F8D0E94AC8D462F50E042
:1025600060E070E0C5010E94730905C061E2C50129
:102570000E94D70903C0C5010E94B9096896E2E12B
:102580000C94B18CFC018081811102C081E08083B8
:10259000613041F4DF01AD5FBB4F1D921C9212828E
:1025A000118208956D3019F4CF010C94C80A21816D
:1025B0003281C901019692838183DF01A20FB31F8B
:1025C00013966C938115944079F30895089580E9EA
:1025D00098E00E94C2088BE894E00C94C208CF9364
:1025E00080E998E00E94E508823098F08330A9F1F4
:1025F00042C08AE29EE00E944E77882371F1682FE4
:1026000080E998E0BFDF80E998E00E94E50881302A
:1026100021F541E050E061E170E08AE29EE00E9435
:102620002E788AE29EE00E944677892B11F715C02A
:1026300080E998E00E94E508833059F480E998E049
:102640000E94CC08682F8AE29EE00E94C677C150A3
:1026500079F78AE29EE00E944E7880E998E00E9435
:10266000E508833041F461E170E08AE29EE00E9477
:102670003A78C1E2ECCFCF9108958BE894E00E94C4
:10268000E508823088F08330D9F008958EEE9CE022
:102690000E941072682F8BE894E074DF8BE894E05E
:1026A0000E94E508813031F48EEE9CE00E94E371D7
:1026B000892B61F78BE894E00E94E508833081F470
:1026C0008BE894E00E94E508833051F48BE894E0B5
:1026D0000E94CC08682F8EEE9CE00E943D72F0CFE5
:1026E0000895CBDF7CDF17C26115710589F0DB012E
:1026F0000D900020E9F7AD0141505109461B570BE1
:10270000DC01ED91FC910280F381E02D09950895A3
:1027100080E090E008950F931F93CF93DF93162FDF
:10272000D42FC22F682F8AE29EE00E9430781436A0
:1027300010F4DC3318F066E471E028C01A3028F495
:102740006CE471E08AE29EE0CFDF4AE050E065E2AF
:1027500073E0812F90E00E94E591BC018AE29EE047
:10276000C3DF62EB71E08AE29EE0BEDFDA3028F47C
:102770006CE471E08AE29EE0B7DF4AE050E065E297
:1027800073E08D2F90E00E94E591BC018AE29EE00B
:10279000ABDFC43610F40C3318F066E471E028C0E7
:1027A000CA3028F46CE471E08AE29EE09DDF4AE0E2
:1027B00050E065E273E08C2F90E00E94E591BC014F
:1027C0008AE29EE091DF62EB71E08AE29EE08CDFBC
:1027D0000A3028F46CE471E08AE29EE085DF4AE08A
:1027E00050E065E273E0802F90E00E94E591BC012B
:1027F0008AE29EE079DF8AE29EE00E944E78DF91D5
:10280000CF911F910F910895A0E0B0E0EAE0F4E1CC
:102810000C949A8C182F042F70E0FB01EE0FFF1F11
:10282000EE0FFF1FEC5FFC4F80809180A280B38091
:1028300081149104A104B10439F0FB01E650FD4F6D
:102840008081882309F443C08091F902811106C078
:10285000FB01E650FD4F80818823E1F1C501B40101
:1028600020E83EEE46E350E00E94578CC22FA22F94
:10287000B0E020E831E149EC5FEF0E94178C6B017A
:102880007C01C80CD91CEA1CFB1CC701B60120E660
:102890003AEE40E050E00E94578C49015A01D22F95
:1028A000C1111AC0A22FB0E020EA35E14FEF5FEF6F
:1028B0000E94178C6C0D7D1D8E1D9F1D28EE33E030
:1028C00040E050E00E94578CC82DD22F05C0D4E6BE
:1028D000C4E602C0D0E0C0E0802F90E0FC01EE0F23
:1028E000FF1FEE0FFF1FEC5FFC4F80809180A280E6
:1028F000B38081149104A104B10439F0FC01E650C5
:10290000FD4F2081222309F443C02091F9022111B7
:1029100006C0FC01E650FD4F80818823E9F1C50126
:10292000B40120E83EEE46E350E00E94578C722E40
:10293000A22FB0E020E831E149EC5FEF0E94178C54
:102940006B017C01C80CD91CEA1CFB1CC701B60139
:1029500020E63AEE40E050E00E94578C49015A01CF
:10296000022F71101BC0A22FB0E020EA35E14FEF1B
:102970005FEF0E94178C6C0D7D1D8E1D9F1D28EE34
:1029800033E040E050E00E94578C782C022F06C0C4
:1029900004E684E6782E02C000E0712C272D4D2F2E
:1029A0006C2F812FB8DECDB7DEB7EDE00C94B68C7E
:1029B000CF93DF93EB01682F8AE29EE00E9430788C
:1029C000FE0101900020E9F7AF01415051094C1B75
:1029D0005D0BBE018AE29EE00E94A0778AE29EE043
:1029E0000E944E78DF91CF910895A8E0B0E0EBEF20
:1029F000F4E10C94A38C49835A836B837C830D830D
:102A00001E832F833887682F8AE29EE00E943078E9
:102A10006FEF70E08AE29EE00E94F90660E070E0ED
:102A20008AE29EE00E94F90644E050E0BE016F5F3A
:102A30007F4F8AE29EE00E94A07744E050E0BE0112
:102A40006B5F7F4F8AE29EE00E94A0778AE29EE061
:102A50000E944E782896E4E00C94BF8CA0E0B0E091
:102A6000E4E3F5E10C949E8CB82EE62FF0E0EE0F37
:102A7000FF1FEA50FC4F208131812115304829F495
:102A80006EE471E08B2D94DF16C0C42FD0E0CC0F24
:102A9000DD1FCD57DB4F888199810E94C1676B0193
:102AA0007C01888199810E94B667AB01BC019701C6
:102AB00086018B2D9ADFCDB7DEB7E9E00C94BA8C96
:102AC000A0E0B0E0E6E6F5E10C949E8CB82EEB01B8
:102AD000CB010E94C16720E030E040E057EC0E944B
:102AE0003B8D811105C06EE471E08B2D61DF0EC05E
:102AF000CE010E94C1676B017C01CE010E94B667C6
:102B0000AB01BC01970186018B2D6FDFCDB7DEB71E
:102B1000E9E00C94BA8CCF92DF92EF92FF920F9380
:102B20001F930E941B76C090950CD090960CE0905D
:102B3000970CF090980C6C197D098E099F09653FE0
:102B400071408105910508F443C060918304709140
:102B5000840482E2B5DF609185047091860482E28C
:102B6000AFDF609187047091880482E2A9DF6091F1
:102B7000000470910104882777FD8095982F0E94AA
:102B8000DA8D20E030E048EC52E40E943F8D6B018A
:102B90007C016091F70270E080E090E00E94D88DA7
:102BA000AB01BC019701860184E21FDF41E060E0D8
:102BB00085E22ADE41E066E08AE250DF0E941B7671
:102BC0006093950C7093960C8093970C9093980C4F
:102BD0001F910F91FF90EF90DF90CF90089540E507
:102BE00050E061E971E084E593E00C942F92CF937B
:102BF000C82F68E470E089E29EE00E943F7790E091
:102C000002C095958795CA95E2F78170CF91089596
:102C100025E0829FC0011124BC01675B7F4F89E2E0
:102C20009EE00C943F7725E0829FC0011124BC01F7
:102C3000665B7F4F89E29EE00C943F7725E0829FA0
:102C4000C0011124BC01655B7F4F89E29EE00C94BA
:102C50003F77CF93C82F85E0C89FB0011124645BF4
:102C60007F4F89E29EE00E943F7790E002C09595F9
:102C70008795CA95E2F78170CF910895CF93C82FB9
:102C800085E0C89FB0011124635B7F4F89E29EE01D
:102C90000E943F7790E002C095958795CA95E2F72C
:102CA0008170CF9108956FE670E089E29EE00C9408
:102CB0003F77482F6FE670E089E29EE00C94427700
:102CC000A1E0B0E0E6E6F6E10C94A58C482F8093F5
:102CD0000C03682F809187049091880449830E9497
:102CE000C967498160E770E089E29EE00E9442770F
:102CF0002196E2E00C94C18C482F61E770E089E2F4
:102D00009EE00C94427761E770E089E29EE00C94CB
:102D10003F77CF93DF93C82FD0E0882777FD80954A
:102D2000982F0E94DA8DAB01BC01FE01EE0FFF1F50
:102D3000ED57FB4F808191810E94046ABE0182E0C1
:102D40000E94DC1FDF91CF910895CF93DF93C82FAE
:102D5000D62FE82FF0E0E650FD4F608362E371E08C
:102D600089E29EE00E943F7741E050E060E070E041
:102D700004C0440F551F661F771FCA95D2F7DD2385
:102D800011F0482B02C04095482362E371E089E2CC
:102D90009EE00E944277DF91CF910895CF93C82F94
:102DA0008093F90262E371E089E29EE00E943F773E
:102DB000482FCC2311F0446001C04B7F62E371E0E7
:102DC00089E29EE00E944277CF910895282FCB019F
:102DD00030E0220F331FB901675C7E4F42E050E0C4
:102DE0000C942F92282FCB0130E0220F331FB90112
:102DF000675C7E4F42E050E00C944792482F60E9B8
:102E000071E089E29EE00C94427760E971E089E22A
:102E10009EE00C943F77EF92FF920F931F93CF9316
:102E2000DF932CE3829FC00111248B01EC01CE5E65
:102E3000DC4F7C01EBEDEE1AECEFFE0AF80141915C
:102E40008F01BE0189E29EE00E9442772196CE1555
:102E5000DF05A1F7CDB7DEB7E6E00C94BD8CA0E0AE
:102E6000B0E0E5E3F7E10C949F8C8B012CE3829FAB
:102E7000C0011124EC01CE5EDC4F7B016C01EBED57
:102E8000CE1AECEFDE0ABE0189E29EE00E943F7797
:102E9000F70181937F012196CC15DD05A1F7F8019B
:102EA000138ACDB7DEB7E8E00C94BB8C462F2CE339
:102EB000829FC0011124BC01695D7C4F89E29EE0C4
:102EC0000C9442772CE3829FC0011124BC01695D00
:102ED0007C4F89E29EE00E943F7794E6899F802D97
:102EE00011240895262F3CE3839FC0011124BC01C7
:102EF000645D7C4F620F711D89E29EE00C94427705
:102F0000262F3CE3839FC0011124BC01645D7C4FEC
:102F1000620F711D89E29EE00E943F7794E6899FCF
:102F2000802D11240895262F4F3F69F03CE3839FA5
:102F3000C0011124BC016E5C7C4F620F711D89E2DF
:102F40009EE00C9442770895262F3CE3839FC001B6
:102F50001124BC016E5C7C4F620F711D89E29EE002
:102F60000C943F77462F2CE3829FC0011124BC01B3
:102F7000645C7C4F89E29EE00C9442772CE3829F54
:102F8000C0011124BC01645C7C4F89E29EE00C947A
:102F90003F77462F2CE3829FC0011124BC01635C64
:102FA0007C4F89E29EE00C9442772CE3829FC00123
:102FB0001124BC01635C7C4F89E29EE00E943F7754
:102FC00094E6899F802D11240895462F2CE3829F3B
:102FD000C0011124BC01625C7C4F89E29EE00C942C
:102FE00042772CE3829FC0011124BC01625C7C4FBC
:102FF00089E29EE00E943F7794E6899F802D11240C
:103000000895682F70E06E5F774F89E29EE00C9420
:103010003F77462F90E0BC016E5F774F89E29EE0DC
:103020000E9442770C94642025E0829FC001112405
:10303000BC016F5E774F89E29EE00C943F7725E0FC
:10304000829FC0011124BC016C5E774F89E29EE033
:103050000C943F7725E0829FC0011124BC016B5E78
:10306000774F89E29EE00C943F77462F25E0829FC0
:10307000C0011124BC016F5E774F89E29EE00C9481
:103080004277462F25E0829FC0011124BC016C5E6F
:10309000774F89E29EE00C944277462F25E0829F8D
:1030A000C0011124BC016B5E774F89E29EE00C9455
:1030B0004277A2E0B0E0EFE5F8E10C949B8CA12C04
:1030C000B12C40E0B50189E29EE00E9442778FEF8B
:1030D000A81AB80AA114E0E1BE0699F74CEF6EEF0A
:1030E00077E089E29EE00E94427773E8A72E74E0C1
:1030F000B72E450140E050E060EA70E4F5018081C0
:1031000091810E94AF6BC12CD12CE12C60E4F62E92
:1031100000E010E020E830E440E050E060E470E4DB
:10312000F501819191915F010E94E86740E050E0D4
:1031300060E870E4F401808191810E94D76BFBE824
:10314000AF16F4E0BF06A9F68CE358DE84EDB1DDDE
:1031500084E6B6DD1FEF19831A83BE016F5F7F4FD0
:1031600080E040DE19831A83BE016F5F7F4F81E0EC
:1031700039DE40E06FEF77E089E29EE00E9442771F
:10318000E0918904F0918A0409952296ECE00C9470
:10319000B78CA4E0B0E0EFECF8E10C94A58C44E02F
:1031A00050E0BC01CE0101960E942F9269817A8184
:1031B0008B819C812496E2E00C94C18C2CE3829F4D
:1031C000C0011124885C9C4FE4CF2CE3829FC00196
:1031D00011248F5B9C4FDDCFA4E0B0E0E2EFF8E17B
:1031E0000C94A58C49835A836B837C8344E050E024
:1031F000BC01CE0101960E9447922496E2E00C9415
:10320000C18C24E0829FC0011124FC01EC5AFC4FC8
:1032100040835183628373838F569E4FDDCF2CE3AF
:10322000829FC0011124885C9C4FD6CF2CE3829FE3
:10323000C00111248F5B9C4FCFCFA2E0B0E0E3E24E
:10324000F9E10C94A58C42E050E0BC01CE0101965E
:103250000E942F9289819A812296E2E00C94C18C7F
:1032600083E391E0EACF8EE891E0E7CF2CE3829F01
:10327000C0011124885D9C4FE0CF2CE3829FC001E8
:103280001124865D9C4FD9CF2CE3829FC00111246D
:10329000815C9C4FD2CF25E0829FC00111248E5EBD
:1032A000974FCBCFA2E0B0E0E8E5F9E10C949D8C1C
:1032B000F82EA82EB12CAA0CBB1C8501075C1C4F54
:1032C000F80180819181009729F00E941575F8011D
:1032D000118210828F2DA8DE682F8F3FD1F08F2DA5
:1032E0006A83D9DF6C018F2DAADE282F8F2D2983C9
:1032F000B1DE082F88E191E00E9413757C012981DD
:10330000A6016A810E948223F501E75CFC4FF182ED
:10331000E0822296EAE00C94B98CA2E0B0E0E3E906
:10332000F9E10C94A58C7A83698342E050E0BC01FA
:10333000CE0101960E9447922296E2E00C94C18C45
:1033400090E089569F4F880F991FE7CFBC0183E318
:1033500091E0E3CFBC018EE891E0DFCF6F3F2FEF2C
:10336000720739F02CE3829FC0011124885D9C4FC5
:10337000D4CF08952CE3829FC0011124865D9C4F19
:10338000CCCF2CE3829FC0011124815C9C4FC5CF20
:1033900025E0829FC00111248E5E974FBECFA1E031
:1033A000B0E0E5EDF9E10C94A38C182F6FEF5DDE32
:1033B00068EE73E0812FECDF68E0812F62DE11118F
:1033C00002C06AE00AC000E06AE0812F698342DE41
:1033D0006981680F0F5F0113F8CF812F5EDE2196A0
:1033E000E4E00C94BF8CCF93DF936FEF77E089E23A
:1033F0009EE00E943F77C82F6EEF77E089E29EE063
:103400000E943F778C3F09F05BC0CF3F09F458C062
:10341000C13019F130F0C230A1F1C33009F440C01D
:1034200051C0CCE4D0E0BE0189E29EE00E943F772B
:10343000880F482F440F440F480FBE0189E29EE0D9
:103440000E9442772596C036D10569F741E06FEFBB
:1034500077E089E29EE00E944277C2E0D8E040E057
:10346000BE0189E29EE00E9442772196C73088E043
:10347000D807A9F742E06FEF77E089E29EE00E946B
:10348000427780E08CDF81E08ADF82E088DF83E0C2
:1034900086DF43E06FEF77E089E29EE00E944277AB
:1034A00080E07DDF81E07BDF82E079DF83E077DF32
:1034B00044E069E078E089E29EE00E94427702C041
:1034C00081E001C080E0DF91CF910895A0E0B0E0FD
:1034D000ECE6FAE10C94A08C8B01D42EEB017C017C
:1034E000E61AF70A8C2F801B8D1548F4B7016C0F74
:1034F0007D1F499189E29EE00E944277F3CFCDB7CC
:10350000DEB7E7E00C94BC8CE82FF0E0833040F4A9
:10351000EE0FFF1FED57FB4F808191810C943568B2
:10352000CF01A3E0880F991FAA95E1F7DC01A85FFE
:10353000BB4F28E0FB0101900D922A95E1F748E08E
:10354000C5CFA1E0B0E0E7EAFAE10C949F8C8B01D3
:103550006B017C01E61AF70A8C2D801B841768F436
:10356000B7016C0D7D1D89E29EE049830E943F7783
:10357000F60181936F014981EFCF2196E8E00C9429
:10358000BB8C0F931F93CF93DF9348E468E074E004
:1035900080E090E0D6DF60E770E089E29EE00E9484
:1035A0003F7780930C03C0E0D0E0BE0182E004D5F9
:1035B0002196C430D105C9F78EE291E03EDE20E6C7
:1035C0003AEEDC010E94118C6093040370930503B2
:1035D000809306039093070380E391E02EDE20E6BC
:1035E0003AEEDC010E94118C60930803709309038A
:1035F00080930A0390930B0362E371E089E29EE0FB
:103600000E943F77C82FD0E081708093FA020E9419
:103610001B766093FC027093FD028093FE029093F0
:10362000FF020C2F069501700093FB020E941B768F
:10363000609300037093010380930203909303034C
:10364000D595C795D595C7956C2F61706093F90294
:1036500087E794E00E94217DC2DA80E023DE81E0EA
:1036600021DE82E01FDE83E01DDEDF91CF911F911E
:103670000F910895A0E0B0E0E0E4FBE10C949B8C96
:10368000EC018BE490E00E9413754C019E012B5DD0
:103690003F4FAE014F5D5F4FBE01635E7F4F8FE3D3
:1036A0008F9380E88F931F921F92A12CB12C80E8FA
:1036B000C82E80E4D82EE12CF12C00E410E4C401E3
:1036C0000E946D879C8E8B8E00E018E327EC35E41A
:1036D00040E050E0BA01C4010E944B858B8D9C8D67
:1036E0000E94B08924E6AC01249FC001259F900D63
:1036F0001124BC01882777FD8095982F0E94DA8DD0
:103700008B019C0140E050E060EF71E48B8D9C8D5B
:103710000E94D08561E070E08B8D9C8D0E94A9870E
:1037200068EE73E08B8D9C8D0E94C1870F900F9087
:103730000F900F90CDB7DEB7ECE00C94B78CCF9222
:10374000EF920F93FC01158A148A148E138E82E077
:1037500085A77183608353834283378B268BE08EEA
:10376000C18E40E050E06AE773E441A752A763A727
:1037700074A7002311F0CF017DDF0F91EF90CF9060
:103780000895CF92DF92EF92FF92CF93DF93EC01F7
:1037900088819981009769F10E94736C2C853D8521
:1037A0004E855F850E94D68C20E030E0A9010E9402
:1037B0008A8E28813981181654F4C9010E94736CCD
:1037C0002C853D854E855F850E94D68C0AC0C90137
:1037D0000E94736C2C853D854E855F850E94D68C3A
:1037E000905820E030E0A9010E94D78C6B017C0149
:1037F00003C0C12CD12C76018A819B81009779F17D
:103800000E94736C288939894A895B890E94D68C09
:1038100020E030E0A9010E948A8E2A813B8118169F
:1038200064F4C9010E94736C288939894A895B89CB
:103830000E94D68C9B01AC010CC0C9010E94736C24
:10384000288939894A895B890E94D68C9B01AC0101
:103850005058C701B6010E94D78C6B017C0188814A
:1038600099810097C1F12A813B81232BA1F10E940C
:10387000736C20E030E0A9010E943B8D882359F150
:1038800020E030E0A9016C857D858E859F850E94B2
:103890003B8D882301F18A819B810E94736C20E01B
:1038A00030E0A9010E943B8D8823A9F020E030E0A0
:1038B000A901688979898A899B890E943B8D88231F
:1038C00051F020E030E040E05FE3C701B6010E9424
:1038D0008E8E6B017C01C701B601DF91CF91FF9005
:1038E000EF90DF90CF900895CF93DF93FC01C281DA
:1038F000D381209709F43FC020E030E0A90161A105
:1039000072A183A194A10E943B8D2BA140915003F1
:10391000509151036091520370915303882381F0B9
:1039200081E090E0A0E0B0E004C0880F991FAA1FDA
:10393000BB1F2A95D2F7842B952BA62BB72B13C030
:1039400081E090E0A0E0B0E004C0880F991FAA1FBA
:10395000BB1F2A95D2F780959095A095B0958423AA
:103960009523A623B7238093500390935103A093EC
:103970005203B0935303DF91CF910895CF92DF921A
:10398000EF92FF92CF93DF93EC01888199810097AA
:1039900031F48A819B810097F1F480E039C00E9464
:1039A000736C6B017C01E881F981E058FF4F20E0E6
:1039B00030E04AE754E460817181828193810E9402
:1039C0003F8D9B01AC01C701B6010E943B8D87FF73
:1039D000E0CF81E01DC00E94736C6B017C01EA8125
:1039E000FB81E058FF4F20E030E04AE754E460817B
:1039F0007181828193810E943F8D9B01AC01C1E066
:103A0000C701B6010E948A8E18160CF0C0E08C2FF8
:103A1000DF91CF91FF90EF90DF90CF900895A0E0DD
:103A2000B0E0E5E1FDE10C94978CEC01888199818F
:103A3000FC01848C958CA68CB78C209154042111A8
:103A40003CC02DA52223C9F10E94736C6B017C013F
:103A500001E010E020E030E0A901C501B4010E94BE
:103A60003B8D811102C000E010E0B801882777FD8E
:103A70008095982F0E94DA8D9B01AC01C701B60199
:103A80000E943B8D9DA518161CF09130B1F403C027
:103A9000913009F047C080E090E0A8ECB2E489A33F
:103AA0009AA3ABA3BCA38E899F89009719F061E00C
:103AB0000E94217DCE0118DF49C119A21AA21BA2C2
:103AC0001CA28E899F89009719F060E00E94217DD9
:103AD000EA81FB81309709F439C181E090E0A0E0F0
:103AE000B0E003A004C0880F991FAA1FBB1F0A944F
:103AF000D2F780959095A095B09540915003509144
:103B000051036091520370915303482359236A2350
:103B10007B2340935003509351036093520370935F
:103B2000530314C18B8D9C8DEC89FD89892B09F081
:103B300085C0309729F0838D948D892B09F0B2C010
:103B400080E090E00E9426880E941B766B017C0139
:103B50008091810490918204C817D90711F483E001
:103B600001C082E0F4E08F9F500111248501035FC2
:103B70001C4FF80180819181A281B3812601370118
:103B8000481A590A6A0A7B0A8B8D9C8D0E94B0895B
:103B900024E6922E9C01929EC001939E900D1124CA
:103BA000A0E0B0E084159505A605B705D8F48B8D87
:103BB0009C8D0E94B089FC019E9EC0019F9E900D2D
:103BC0001124AA2797FDA095BA2FF80140815181B1
:103BD00062817381840F951FA61FB71F8083918315
:103BE000A283B383F501E35FFC4F80809180A280C4
:103BF000B380C701B601681979098A099B090E9437
:103C0000D88D9B01AC0169A17AA18BA19CA10E94D6
:103C10008A8E2E893F8987FD07C0C814D904EA041B
:103C2000FB0411F061E001C060E0C9010E94217D48
:103C3000898D882399F1CE0157DE30C0EF2B99F0A2
:103C40008E899F890E94257D811135C08C899D892F
:103C500098DD29A53AA54BA55CA50E948A8E181669
:103C60000CF448C028C0CE0189DE2E893F8981111D
:103C70000DC061E0C9010E94217D80E090E0A8ECC8
:103C8000B2E489A39AA3ABA3BCA308C060E0C901B6
:103C90000E94217D19A21AA21BA21CA2898D81114A
:103CA00055C008CF84819581A681B7818DA39EA33D
:103CB000AFA3B8A745CFCE0164DD29A53AA54BA592
:103CC0005CA50E948A8E18164CF78C899D8959DD57
:103CD00029A53AA54BA55CA50E943B8D87FFDECFA9
:103CE00060E08E899F890E94217D19A21AA21BA2E1
:103CF0001CA20DC061E08E899F890E94217D80E019
:103D000090E0A8ECB2E489A39AA3ABA3BCA38881FA
:103D10009981009739F00E94736C6C877D878E873C
:103D20009F8704C01C861D861E861F868A819B81F4
:103D3000009739F00E94736C688B798B8A8B9B8B10
:103D4000ADCF188A198A1A8A1B8AA8CFCDB7DEB7D9
:103D5000E0E10C94B38CCF93DF93EC018B8D9C8DC1
:103D6000662329F0892B39F4CE0184DC04C0009746
:103D700011F00E941575CE0152DEDF91CF910895AA
:103D8000FC01408751876287738745A356A367A3C9
:103D900070A745CEAF92BF92CF92EF920F93CF9381
:103DA000DF93809183049091840420918504309165
:103DB00086048217930709F443C0A0904103B09092
:103DC00042038EE290E00E941375EC01409185045D
:103DD000509186046091830470918404C12CE12C7D
:103DE00001E09501ACDCD0938004C0937F04209166
:103DF0008504309186048091870490918804281767
:103E00003907C9F0C0914103D091420324968EE254
:103E100090E00E9413755C014091870450918804E2
:103E200060918504709186049E0189DCB0928204C1
:103E3000A092810426C0D0938204C093810421C043
:103E4000209187043091880482179307D1F0A090C5
:103E50004103B09042038EE290E00E941375EC01A2
:103E60004091870450918804609185047091860484
:103E7000C12CE12C01E0950162DCD0938004C09359
:103E80007F048EE290E00E941375EC014091830460
:103E900050918404C12CE12C00E020E030E060E08F
:103EA00070E04DDCD0937C04C0937B048EE290E004
:103EB0000E941375EC01409185045091860420E026
:103EC00030E060E070E03BDCD0937E04C0937D0482
:103ED000DF91CF910F91EF90CF90BF90AF90089569
:103EE0008091500390915103A0915203B0915303DC
:103EF0008F7D8093500390935103A0935203B0930E
:103F00005303089580915504909156040E94257D95
:103F1000882319F010925404089581E0809354048A
:103F20000E94ED3047D163D20C94F5308091830428
:103F3000909184040E94C268809150039091510333
:103F4000A0915203B09153039F7D809350039093AF
:103F50005103A0935203B0935303089580915003EB
:103F600090915103A0915203B0915303877F8093A6
:103F7000500390935103A0935203B0935303809145
:103F80008504909186040C94C268809150039091AE
:103F90005103A0915203B09153039F778093500334
:103FA00090935103A0935203B093530380918704DD
:103FB000909188040C94C268EF92FF920F931F9324
:103FC000CF93DF93F82EEB0182E0F81270C0862FBA
:103FD0006BD2082F8C2F75D2E82E8C2F7FD2182F02
:103FE000FE01EE0FFF1FED57FB4F808191810E9474
:103FF000B66720E030E0A9010E943B8D202F30E021
:10400000F901E85BFC4F882319F081E080834FC001
:104010001082812F27D2882319F141E050E060E01F
:1040200070E004C0440F551F661F771F1A95D2F722
:1040300040955095609570950091500310915103F3
:104040002091520330915303042315232623372351
:104050000093500310935103209352033093530362
:104060008E2D00D2882319F141E050E060E070E02D
:1040700004C0440F551F661F771FEA94D2F740957E
:1040800050956095709500915003109151032091C7
:10409000520330915303042315232623372300931F
:1040A00050031093510320935203309353036C2F0A
:1040B0008F2D0E946233BE018F2D0E94E612CDB774
:1040C000DEB7E6E00C94BD8C1F93CF93DF938BD9C2
:1040D00081113BC0C5E5D4E010E08881998100974B
:1040E00011F00E941A7E812F0E940118882349F145
:1040F000812F0E94011824E0829FC0011124855A5B
:104100009B4F99838883111105C042E85FE161E00C
:1041100070E015C0113029F440E75FE163E070E022
:104120000EC0123019F446E95FE107C0133019F4EC
:104130004EEA5FE102C045EC5FE162E070E00E94A0
:10414000887D1F5F2296153041F6DF91CF911F9138
:10415000089541E062E087E794E00E948F7C41E0AF
:1041600060E080E594E00E948F7C40E065E18FE5AF
:1041700094E00E948F7C40E064E183E694E00E943A
:104180008F7C40E063E187E694E00E948F7C40E012
:1041900062E18BE694E00E948F7C40E065E08FE670
:1041A00094E00E948F7C40E066E183E794E00C9409
:1041B0008F7C0895A0E0B0E0E0EEF0E20C949F8CDC
:1041C0000E941B766B017C01CDE0D3E003E814E094
:1041D000EE24FF2488819981AA81BB81892B8A2BB7
:1041E0008B2B21F4C882D982EA82FB82F80181916B
:1041F00091918F010E94C2682496F3E0C931DF07D4
:1042000049F7CDB7DEB7E8E00C94BB8CCF92DF92D4
:10421000EF92FF920F931F936B017C0181E493E077
:104220006BD2C616D706E806F90699F1B701A601C2
:1042300081E493E006D28091390390913A0300978C
:1042400089F018D39701860104C0369527951795F4
:1042500007956A95D2F7B901A80180913903909129
:104260003A039ED280913B0390913C03009789F0E2
:1042700001D39701860104C03695279517950795B8
:104280006A95D2F7B901A80180913B0390913C0354
:1042900087D21F910F91FF90EF90DF90CF900895FC
:1042A0000F931F93CF93DF9380915404811197C094
:1042B00080915704909158040097A9F00E94257DA1
:1042C000882389F08091500390915103A09152036B
:1042D000B09153038F7D8093500390935103A0932B
:1042E0005203B09353038091590490915A0400975C
:1042F000A9F00E94257D811111C0809150039091F9
:104300005103A0915203B09153039F7D80935003BA
:1043100090935103A0935203B093530380915B0495
:1043200090915C040097A9F00E94257D811111C035
:104330008091500390915103A0915203B091530387
:10434000877F8093500390935103A0935203B093BF
:10435000530380915D0490915E040097A9F00E9440
:10436000257D811111C08091500390915103A0913E
:104370005203B09153039F7780935003909351035E
:10438000A0935203B09353034091500350915103B3
:104390006091520370915303C4E5D3E0E0E0F0E094
:1043A00080E090E0DC018A019B010E2E04C036956E
:1043B0002795179507950A94D2F700FF08C0088142
:1043C00019812A813B81802B912BA22BB32B319613
:1043D0002496E431F10539F7BC01CD0103C060E05A
:1043E00070E0CB01DF91CF911F910F91089558DFBD
:1043F0000DCFCF93DF931092500310925103109280
:10440000520310925303C3E8D4E040E050E0BA01F5
:10441000899199910E94046A84E0C938D807A9F764
:1044200040E050E0BA0180917F0490918004A8DCC4
:1044300040E050E0BA018091810490918204A0DCB8
:10444000D6DFDF91CF910895E82FF0E0EE0FFF1F48
:10445000ED57FB4F40E050E0BA01808191810E940E
:10446000046AC5CF94E0899FF0011124EC5AFC4FF7
:104470004081518162817381452B462B472B91F0FE
:104480004091500350915103609152037091530336
:1044900004C076956795579547958A95D2F7842FEE
:1044A0008170089580E00895882329F0813029F0F3
:1044B000823029F0089586E0089581E0089587E02C
:1044C0000895882329F0813029F0823029F0089559
:1044D0008DE0089583E008958FE00895882329F002
:1044E000813029F0823029F008958EE0089584E02B
:1044F000089580E10895811105C08091590490913B
:104500005A040895813029F480915B0490915C04F1
:104510000895823029F480915D0490915E0408959D
:1045200080E090E00895CF93E8E4F3E020E030E00D
:10453000C0E041E050E08191882339F0BA01022EB9
:1045400001C0660F0A94EAF7C62B2F5F3F4F283051
:10455000310589F7E0917F04F091800485A58230D0
:1045600009F4C460E0918104F091820495A5923031
:1045700019F4823059F1C860E0917B04F0917C0419
:1045800085A5823029F1E0917D04F0917E0485A516
:104590008230F1F080918304909184040E94016C38
:1045A000823009F4C06480918504909186040E9451
:1045B000016C823009F4C260809187049091880474
:1045C0000E94016C823031F4C06804C0C861D4CF4D
:1045D000C160E0CF8C2FCF910895E82FF0E0EE0F6F
:1045E000FF1FED57FB4F0190F081E02DED52FF4F83
:1045F00060817181828193810E94AC8D862F0895A4
:10460000CF93DF93EC016E8324E0629FC0011124FD
:104610000E94BC7099838883DF91CF910895FC013B
:10462000808191810C945471262F642FFC0180812C
:10463000918141E0F4E02F9F800D911D11240C9495
:104640008F7CAF92BF92DF92EF92FF920F931F93F6
:10465000CF93DF9300D000D0CDB7DEB75C01D12C73
:10466000EE24E394F12CF5018681D81678F58701C4
:104670000D2C02C0000F111F0A94E2F7222717FD2C
:104680002095322F0423152326233723A4E0DA9E16
:10469000C0011124D501ED91FC918E0F9F1F49831C
:1046A0005A836B837C83012B022B032B39F00E94EE
:1046B000BA7C49815A816B817C8106C00E94DB7C77
:1046C0007C816B815A814981D394CDCF42835383BE
:1046D000648375830F900F900F900F90DF91CF91AF
:1046E0001F910F91FF90EF90DF90BF90AF900895D2
:1046F00040E050E0BA01A5CFFC0162817381848162
:1047000095810895A0E1B1E0E8E8F3E20C949D8C76
:104710007C015A01122F6C0184E0C80ED11CC60125
:10472000C05FDE4F6883C051D1400E949C80F7017A
:10473000ED5EFE4FC05FDE4F6881C051D1406083A7
:10474000462F61E0CE0101960E94A1808FE091E0AA
:10475000FE013196D60101900D920197E1F767E1D4
:10476000C6010E94B38126E240E05CE261E070E0B5
:10477000C6010E94AB80F701EA5EFE4F81E0A81AF5
:10478000B108B182A082F701EC5EFE4F1083F70101
:10479000EB5EFE4F0083C05FDE4FEAE00C94B98C05
:1047A000A0E0B0E0E6EDF3E20C94968CEC014883D7
:1047B00059836A837B83E0E0312C7C018CEEE81A1C
:1047C0008EEFF80A812C912C540183946E01A4E0A1
:1047D000CA0ED11CD701FC913F16B8F580E090E0DD
:1047E00000E0132D180F1F1720F58830910509F1EF
:1047F000488059806A807B8004C07694679457947F
:1048000047941A95D2F7402F95018401082E04C0D1
:10481000000F111F221F331F0A94D2F740FE02C05F
:10482000042B05C000951095209530950423019622
:10483000D8CF772473947E0E402F50E06E2FC601A0
:104840000E94E381E72D312EC5CF4F2F50E0FE01AE
:10485000EA5EFE4F60817181CE0104960E94B884A9
:10486000CDB7DEB7E1E10C94B28C8C5E9E4FFC01BB
:10487000808108958B5E9E4FFC01608170E080E036
:1048800090E00895FC01EC5EFE4F408150E0FC0199
:10489000EA5EFE4F6081718104960C949984EF92D8
:1048A000FF920F931F93CF93DF93EC01F62E8C01B1
:1048B0000C5F1F4F462F50E069E273E2C8010E946F
:1048C000A784E82E81110AC041E050E06AE273E259
:1048D000C8010E94A784CD5EDE4FF8828E2DCDB731
:1048E000DEB7E6E00C94BD8C462F50E068E273E240
:1048F00004960C94A784CF93DF93EC01249641E0B7
:1049000050E068E273E2CE010E94A084811105C0EC
:1049100060E0CE010E94D68101C080E0DF91CF919E
:104920000895FC0115A67BC8982F80919A0C8917D1
:1049300039F081E020919C0C291719F080E008954E
:1049400081E0089580919A0C8D3038F081E090914B
:104950009C0C9D3018F080E0089581E00895E82FC8
:10496000F0E0EE0FFF1FE656F34F80810895E82F29
:10497000F0E0EE0FFF1FE556F34F80810C942F17E8
:10498000E82FF0E0EE0FFF1FE556F34F808108950A
:1049900080919A0C8F3F31F080919C0C8F3F49F4AD
:1049A00081E001C080E090E0880F991F8656934F08
:1049B000089580E090E008959C012A593C40359587
:1049C0002795BC01822F0C94F2160F931F93CF935F
:1049D000DF93EC01162F08816883EEDF1F3F21F47F
:1049E000602F70E081E003C0688170E080E0E4DA6D
:1049F000DF91CF911F910F910895CF93DF93EB013A
:104A00008130E1F090F0843008F058C06FEFCE01B3
:104A1000DCDF10924D038091500390915103A091DF
:104A20005203B0915303997F32C089810E94F117DC
:104A30008093F7026EE0CE01C8DF40C0809187040A
:104A4000909188040E94C16720E030E040E85FEB6D
:104A50000E943B8D882321F18091870490918804E6
:104A60000E94C16720E030E040E353E40E943B8DA8
:104A70001816B4F088E0F6DC811120C08091500354
:104A800090915103A0915203B09153039160809390
:104A9000500390935103A0935203B09353030EC05D
:104AA00088E0E0DC882351F080915003909151031D
:104AB000A0915203B09153039E7FE9CFDF91CF9134
:104AC0000895A0E0B0E0E7E6F5E20C949B8C182F87
:104AD000EB01813009F475C050F0823009F494C1C3
:104AE000833009F0D8C16FEFCE016FDF8DC103E8CD
:104AF00014E0F3E0FF2EF801819191918F01FC0108
:104B0000F18A0E949A6DF4E009381F07A1F740E08E
:104B100050E0BA0180917F049091800431D940E047
:104B200050E0BA01809181049091820429D90E94B9
:104B30005316682F70E080E090E00E94D88DAB01A2
:104B4000BC0180918704909188040E94046A898145
:104B50000E9444199093A10C8093A00C80910803AB
:104B600090910903A0910A03B0910B03892B8A2B22
:104B70008B2B81F489810E943619BC0181E00E944F
:104B8000623010929F0C10929E0C80E090E00E9488
:104B9000A61906C00E94301990939F0C80939E0C1A
:104BA0001092FB021092A60C1092A70C1092A80C67
:104BB0001092A90C81E08093F8026DE0CE0105DF30
:104BC0006AC180919E0C90919F0C97FD1CC08091B2
:104BD0008704909188040E94C16720E030E040E0A3
:104BE00057EC0E943B8D882371F08091870490914F
:104BF00088040E94C16720E038E240EA56E40E943F
:104C00008A8E87FF1FC1E0918704F0918804EE52DD
:104C1000FF4F8081882339F08091FB02811103C00E
:104C200081E00E949C308091A60C9091A70CA091ED
:104C3000A80CB091A90C892B8A2B8B2B81F00E9498
:104C40001B760091A60C1091A70C2091A80C309116
:104C5000A90C601771078207930709F002C1E09160
:104C60008704F0918804EE52FF4F808181110AC0C1
:104C7000E0918704F0918804EE52FF4F808181110A
:104C8000A6C009C180919E0C90919F0C2091A00C10
:104C90003091A10C8227932780FF29C08091500377
:104CA00090915103A0915203B09153038068809377
:104CB000500390935103A0935203B09353030E9467
:104CC0001B766093A60C7093A70C8093A80C90930E
:104CD000A90C81E00E94ED3080919E0C90919F0C78
:104CE000816090939F0C80939E0C0E94A61964E0B3
:104CF000E62E61E0F62E01E010E0AA24A394B12C88
:104D0000E0E68E2EEAEE9E2E6501002E02C0CC0C4F
:104D1000DD1C0A94E2F780919E0C90919F0C2091EB
:104D2000A00C3091A10C822793278C219D21892BE7
:104D300009F443C0F70120813181289DC001299DDC
:104D4000900D389D900D1124A0E0B0E04091080333
:104D50005091090360910A0370910B038417950722
:104D6000A607B70750F18091500390915103A0918D
:104D70005203B09153038068809350039093510382
:104D8000A0935203B09353030E941B766093A60C2A
:104D90007093A70C8093A80C9093A90C81E00E94BB
:104DA000ED3080919E0C90919F0C8C299D299093C1
:104DB0009F0C80939E0C0E94A6190F5F1F4FF2E07C
:104DC000EF0EF11C0C30110509F09ECF51CF8091F0
:104DD000080390910903A0910A03B0910B03892B5A
:104DE0008A2B8B2B09F057C082E02EDB8091A60C1A
:104DF0009091A70CA091A80CB091A90C892B8A2B9B
:104E00008B2B09F048C012E04091500350915103A0
:104E100060915203709153034F7740935003509326
:104E2000510360935203709353031092F80282E08F
:104E30000BDB81E00E94C430123069F5BE0180E0D6
:104E4000DCDD29C081E00E94ED3080919E0C9091C4
:104E50009F0C906890939F0C80939E0C0E94A619C3
:104E6000D2CE409150035091510360915203709102
:104E700053034F7740935003509351036093520371
:104E8000709353031092A60C1092A70C1092A80CCA
:104E90001092A90CE4CECDB7DEB7ECE00C94B78C41
:104EA0008C3010F480E007C08C3041F480E04ADDA3
:104EB000811106C081E046DD811102C080E00895C5
:104EC00081E00895FF920F931F93CF93DF93F82E05
:104ED000162F83E18F1518F480E090E022C0862F12
:104EE000DFDF8111F9CF54DDEC010097A9F31F300A
:104EF00098F7E12FF0E0EE0FFF1FE95AFE4F008117
:104F000011810115110541F38FEF8883F982CE01DC
:104F100053DDBE0180E0F801099588818F3FE1F201
:104F2000CE01CDB7DEB7E5E00C94BE8C60E0CACF11
:104F3000DC01862FEC91EF3060F4F0E0EE0FFF1F04
:104F4000E95AFE4F0190F081E02D309711F0BD013C
:104F5000099508956AE97CE080E00E94E616809158
:104F60009A0C8F3F49F060E08AE99CE0E1DF6091B4
:104F70009A0C70E080E020D86CE97CE081E00E942F
:104F8000E61680919C0C8F3F49F060E08CE99CE034
:104F9000CFDF60919C0C70E080E00EC80895809196
:104FA0009A0C8F3F21F061E08AE99CE0C1DF80919B
:104FB0009C0C8F3F21F061E08CE99CE0B9CF089513
:104FC000CF93DF93C82FD62F80919A0C8C1310C0EB
:104FD000CF3070F4AC2FB0E0AA0FBB1FA95ABE4F60
:104FE000ED91FC91309721F06AE97CE08D2F0995D5
:104FF00080919C0C8C1311C0CF3078F4EC2FF0E032
:10500000EE0FFF1FE95AFE4F0190F081E02D30971F
:1050100021F06CE97CE08D2F0995DF91CF91089507
:1050200063E08AE99CE084DF63E08CE99CE080CF68
:105030000F931F93CF93DF93182F062FEA01613050
:1050400009F449C050F0623009F477C0633009F0C8
:105050008EC06FEFCA01B9DC70C089810E94D5177C
:10506000682F70E080E090E00E94D88DAB01BC0119
:1050700080918304909184040E94046A612F898145
:105080000E948017682F70E080E090E00E94D88D29
:10509000AB01BC0180918504909186040E94046A52
:1050A000409104035091050360910603709107033A
:1050B000452B462B472B41F4612F89810E94A41771
:1050C000682F70E080E0FED71092FA0265E0610F71
:1050D000CE017BDC4CC0E0918504F0918604EE5259
:1050E000FF4F8081882331F08091FA02811102C044
:1050F0000E949C3080918504909186040E94B6673E
:1051000020E030E0A9010E943B8D8823A9F0E091C6
:105110008504F0918604EE52FF4F8081882339F197
:105120008091040390910503A0910603B0910703B9
:10513000892B8A2B8B2BD9F402E080E00E94C430AB
:1051400080E082D981E080D9023089F4E881EF5F84
:10515000EF3068F4F0E0EE0FFF1FE95AFE4F0190C8
:10516000F081E02D309719F0BE0180E00995DF91C4
:10517000CF911F910F910895AB01682F80E058CF18
:10518000AB01682F81E054CFAB01682F82E050CF94
:10519000AB01682F83E04CCFAB01682F84E048CF90
:1051A000AB01682F85E044CF8F929F92AF92BF9260
:1051B000CF92DF92EF92FF921F93CF93DF93C82F8E
:1051C0000E94DE180E94D88DE0918704F091880437
:1051D000248D358D468D578D0E94D78C6B017C01B7
:1051E0000E948316182F8C2F0E943619EC01612F14
:1051F00070E080E090E00E94DA8D20E030E048EC42
:1052000052E40E943F8D4B015C01BE0180E090E0C2
:105210000E94D88D9B01AC01C501B4010E948E8E05
:1052200020E030E040E752E40E943F8D9B01AC015A
:1052300060E070E080E89FE30E94D68C9B01AC01A7
:10524000C701B6010E943F8D0E94AC8D0E94D88D8F
:1052500020E030E040E05FE30E94D78C0E94A78D01
:10526000DF91CF911F91FF90EF90DF90CF90BF9093
:10527000AF909F908F900895FF920F931F93CF93BD
:10528000DF93182FEB01813009F43EC050F08230DB
:1052900009F44BC0833009F06DC06FEFCE0195DB90
:1052A00044C003E814E062E0F62EF8018191919188
:1052B0008F01FC01F18A0E949A6DF4E009381F0702
:1052C000A1F7898171DF009187041091880400584B
:1052D0001F4F0E94D88D20E030E04AE754E40E943E
:1052E0008E8EF801608371838283938380917F0423
:1052F0009091800416DB809181049091820411DBEF
:105300006CE0CE0162DB36C080917F049091800416
:10531000009711F00E940F1D8091810490918204EA
:10532000009741F10E940F1D25C0E0918304F09188
:105330008404E058FF4F1082118212821382E091A0
:105340008704F0918804E058FF4F10821182128286
:10535000138280917F04909180040E940F1D8091A0
:105360008104909182040E940F1D123019F4BE0135
:1053700080E0A7DBCDB7DEB7E5E00C94BE8C0F93E1
:105380001F93CF93DF93182FEB01823009F452C0A3
:10539000833009F44CC0811156C081E01ED7898149
:1053A0000E946217682F70E080E090E00E94D88D24
:1053B000AB01BC0180918304909184040E94046A33
:1053C00080918504909186040E94B66720E030E0C9
:1053D000A9010E943B8D882321F06BE0CE01F5DA14
:1053E00032C015E080918504909186040E94B667D2
:1053F00020E030E0A9010E943B8D8111EECF1F3FDC
:1054000061F30FEF010F612F89810E948017682FD0
:1054100070E080E090E00E94D88DAB01BC018091EB
:105420008504909186040E94046A102FDBCF6FEFF1
:10543000CE01CBDA80E008D881E006D8123019F42A
:10544000BE0180E019DFDF91CF911F910F91089588
:10545000CF93C82F0E94E5180E94D88D26E731E728
:105460004BE55EE30E948E8E20E030E0A9010E94B1
:105470008A8E87FD12C08C2F0E94E5180E94D88D5D
:1054800026E731E74BE55EE30E948E8E20E030E0B8
:1054900040E05FE30E94D78C11C08C2F0E94E5187A
:1054A0000E94D88D26E731E74BE55EE30E948E8EA1
:1054B00020E030E040E05FE30E94D68C0E94A78DA0
:1054C000CF910895CF92DF92EF92FF92CF93C82FA2
:1054D0000E943D196C018C2FC114D10409F475C0D0
:1054E0000E94E5189B01AC01E12CF12CC701B6012B
:1054F0000E94218C0E94D88D20E030E048EC52E4DC
:105500000E943F8D20E030E0A9010E948A8E87FD35
:1055100018C08C2F0E94E5189B01AC01C701B60191
:105520000E94218C0E94D88D20E030E048EC52E4AB
:105530000E943F8D20E030E040E05FE30E94D78C86
:1055400017C08C2F0E94E5189B01AC01C701B60162
:105550000E94218C0E94D88D20E030E048EC52E47B
:105560000E943F8D20E030E040E05FE30E94D68C57
:105570000E94A78D0E94D88D20E030E040E85EE3D5
:105580000E948E8E6B017C0120E030E0A9010E9418
:105590008A8E20E030E040E05FE387FD05C0C70170
:1055A000B6010E94D78C04C0C701B6010E94D68CF8
:1055B0000E94A78D0E94D88DE0918504F091860409
:1055C000248D358D468D578D25C0EEDD6B017C0118
:1055D0008C2F3EDF6C0D7D1D8E1D9F1D0E94D88D72
:1055E0006B017C01E0918304F0918404A091850417
:1055F000B09186045C962D913D914D915C915F97A1
:10560000648D758D868D978D0E94D78C9B01AC0122
:10561000C701B6010E94D78C0E94AC8DCF91FF903C
:10562000EF90DF90CF900895CF92DF92EF92FF92AC
:10563000CF93C82FB9DD6B017C018C2F09DF6C0D76
:105640007D1D8E1D9F1D0E94D88D6B017C01E091F8
:105650008304F0918404A0918504B09186045C9643
:105660002D913D914D915C915F97648D758D868DE7
:10567000978D0E94D78C9B01AC01C701B6010E9497
:10568000D78C0E94AC8D6B017C018C2F1BDFA70196
:105690009601261B370B480B590BCA01B901CF9154
:1056A000FF90EF90DF90CF900895CF92DF92EF922E
:1056B000FF92CF93C82F0E94BE17811104C08C2F78
:1056C000B3DF6B017C01C701B601CF91FF90EF9072
:1056D000DF90CF9008950F931F93CF93DF93182FF0
:1056E000EB01813091F148F08230B1F1833009F063
:1056F00042C06FEFCE0169D92FC08981D6DF0091FA
:1057000083041091840400581F4F0E94D88D20E01C
:1057100030E04AE754E40E948E8EF8016083718382
:1057200082839383E0918504F0918604E058FF4FD3
:10573000108211821282138280917B0490917C04EA
:10574000F0D864E0CE0141D916C080917B049091DD
:105750007C040E940F1D0FC0E0918304F09184042B
:10576000E058FF4F1082118212821382123019F416
:10577000BE0180E001DDDF91CF911F910F9108956F
:10578000A0E0B0E0E6ECFBE20C94978C182FEB0164
:10579000813009F480C050F0823009F483C0833036
:1057A00009F0B3C06FEFCE0110D97CC003E814E05C
:1057B000F801819191918F01FC01118A0E949A6DEB
:1057C000F4E009381F07A1F71092A20C1092A30C65
:1057D0001092A40C1092A50C80E00E94242281E07B
:1057E0000E94242281E0F9D48091500390915103CA
:1057F000A0915203B091530384608093500390931F
:105800005103A0935203B093530389810E94BE17A2
:1058100081113DC0898108DF4B015C01898152DE25
:105820006B017C01680D791D8A1D9B1D0E94D88D1E
:105830002B013C010091830410918404F801808CB9
:10584000918CA28CB38CA50194010E943B8D87FFA3
:1058500002C05301420100581F4FC701B6010E9408
:10586000D88D9B01AC01C501B4010E94D68C20E00B
:1058700030E04AE754E40E948E8EF8016083718321
:105880008283938380917F04909180044AD863E05F
:10589000CE019BD83AC080917F04909180040E94F1
:1058A0000F1D33C0E0918304F0918404E058FF4F52
:1058B000108211821282138280E00E942422809141
:1058C0007F04909180040E940F1D409150035091DD
:1058D000510360915203709153034B7F40935003E7
:1058E000509351036093520370935303123069F441
:1058F0008981DBDE672B682B692B21F0BE0180E0FC
:10590000EADE03C0BE0180E037DCCDB7DEB7E0E100
:105910000C94B38C0F931F93CF93DF93182FEB014D
:105920008130A9F150F0823009F443C0833009F08E
:105930004DC06FEFCE0149D83CC003E814E0F80138
:10594000819191918F01FC01118A0E949A6DF4E07E
:1059500009381F07A1F789810E94BE178093990C0F
:1059600089810E94D517682F70E080E090E00E9446
:10597000D88DAB01BC0180918304909184040E9476
:10598000046A80E001D462E0CE011FD81FC0E0911C
:10599000990CF0E0EE0FFF1FED57FB4F0190F081E7
:1059A000E02DEE52FF4F8081882381F081E015D4F5
:1059B0000DC080E0E9D380E00E94242281E00E94B3
:1059C0002422123019F4BE0180E0DADEDF91CF919B
:1059D0001F910F9108951F93CF93DF93182FEB0121
:1059E0008130F9F048F0823049F18330B9F56FEF3A
:1059F000CE010E94E52422C00E943319892B61F058
:105A00008091040390910503A0910603B0910703D0
:105A1000892B8A2B8B2BE1F061E0CE010E94E524DB
:105A20001DC04091040350910503609106037091DD
:105A30000703452B462B472B89F412E080E0A4D3C3
:105A400080E0CBD3123051F4BE0180E063DF06C0AA
:105A50000E943319BC0180E035D3DECFDF91CF91B6
:105A60001F910895A0E0B0E0E8E3FDE20C949B8C68
:105A7000182FEB01813009F4C0C058F0823009F4CE
:105A8000C9C0833009F0F2C06FEFCE010E94E52457
:105A9000C1C003E814E0F801819191918F01FC01EC
:105AA000118A0E949A6DF4E009381F07A1F78981D5
:105AB000BBDD009183041091840400581F4F0E94A5
:105AC000D88D20E030E04AE754E40E948E8EF80141
:105AD00060837183828393838981F4DC00918504E0
